{"contracts/ContractInsurance.sol":{"CryptoWalletInsuranceFactory":{"abi":[{"inputs":[],"stateMutability":"payable","type":"constructor"},{"inputs":[],"name":"claimInsurance","outputs":[],"stateMutability":"payable","type":"function"},{"inputs":[{"internalType":"address","name":"","type":"address"}],"name":"contractToCustomer","outputs":[{"internalType":"address","name":"","type":"address"}],"stateMutability":"view","type":"function"},{"inputs":[{"internalType":"address","name":"","type":"address"}],"name":"customerToContract","outputs":[{"internalType":"address","name":"","type":"address"}],"stateMutability":"view","type":"function"},{"inputs":[{"internalType":"address","name":"customerAddress","type":"address"}],"name":"getCustomerToContract","outputs":[{"internalType":"address","name":"","type":"address"}],"stateMutability":"view","type":"function"},{"inputs":[],"name":"getCustomers","outputs":[{"internalType":"address[]","name":"","type":"address[]"}],"stateMutability":"view","type":"function"},{"inputs":[{"internalType":"uint8","name":"plan","type":"uint8"},{"internalType":"address","name":"contractAddress","type":"address"},{"internalType":"uint256","name":"timePeriod","type":"uint256"}],"name":"getInsurance","outputs":[],"stateMutability":"payable","type":"function"},{"inputs":[{"internalType":"uint8","name":"","type":"uint8"}],"name":"plans","outputs":[{"internalType":"uint8","name":"","type":"uint8"}],"stateMutability":"view","type":"function"},{"inputs":[{"internalType":"uint256","name":"amount","type":"uint256"}],"name":"withdraw","outputs":[],"stateMutability":"payable","type":"function"},{"stateMutability":"payable","type":"receive"}],"evm":{"bytecode":{"linkReferences":{},"object":"60a0604052670de0b6b3a764000034101561001957600080fd5b3373ffffffffffffffffffffffffffffffffffffffff1660808173ffffffffffffffffffffffffffffffffffffffff1681525050600160036000600160ff16815260200190815260200160002060006101000a81548160ff021916908360ff160217905550600560036000600260ff16815260200190815260200160002060006101000a81548160ff021916908360ff160217905550600a60036000600360ff16815260200190815260200160002060006101000a81548160ff021916908360ff1602179055506080516124376100fb600039600061022601526124376000f3fe6080604052600436106200008b5760003560e01c8063a75ac6081162000055578063a75ac6081462000160578063af9b82d9146200016c578063e2978f3a14620001b0578063f1ba712714620001f45762000093565b80632e1a7d4d146200009857806360a31a8814620000b85780636353b81814620000fc57806395c1d18c146200011c5762000093565b366200009357005b600080fd5b620000b66004803603810190620000b0919062000a75565b62000224565b005b348015620000c557600080fd5b50620000e46004803603810190620000de919062000ae5565b6200030a565b604051620000f3919062000b28565b60405180910390f35b6200011a600480360381019062000114919062000baa565b6200032a565b005b3480156200012957600080fd5b5062000148600480360381019062000142919062000c06565b62000671565b60405162000157919062000c49565b60405180910390f35b6200016a620006a4565b005b3480156200017957600080fd5b5062000198600480360381019062000192919062000c06565b620008fb565b604051620001a7919062000c49565b60405180910390f35b348015620001bd57600080fd5b50620001dc6004803603810190620001d6919062000c06565b6200092e565b604051620001eb919062000c49565b60405180910390f35b3480156200020157600080fd5b506200020c62000997565b6040516200021b919062000d34565b60405180910390f35b7f000000000000000000000000000000000000000000000000000000000000000073ffffffffffffffffffffffffffffffffffffffff163373ffffffffffffffffffffffffffffffffffffffff16146200027d57600080fd5b804710156200028b57600080fd5b60003373ffffffffffffffffffffffffffffffffffffffff1682604051620002b39062000d8d565b60006040518083038185875af1925050503d8060008114620002f2576040519150601f19603f3d011682016040523d82523d6000602084013e620002f7565b606091505b50509050806200030657600080fd5b5050565b60036020528060005260406000206000915054906101000a900460ff1681565b600073ffffffffffffffffffffffffffffffffffffffff16600160003373ffffffffffffffffffffffffffffffffffffffff1673ffffffffffffffffffffffffffffffffffffffff16815260200190815260200160002060009054906101000a900473ffffffffffffffffffffffffffffffffffffffff1673ffffffffffffffffffffffffffffffffffffffff1614620003c357600080fd5b60008273ffffffffffffffffffffffffffffffffffffffff163190506000600360008660ff1660ff16815260200190815260200160002060009054906101000a900460ff16905060008160ff160362000453576040517f08c379a00000000000000000000000000000000000000000000000000000000081526004016200044a9062000e05565b60405180910390fd5b6064838260ff168462000467919062000e56565b62000473919062000e56565b6200047f919062000ed0565b3414620004c3576040517f08c379a0000000000000000000000000000000000000000000000000000000008152600401620004ba9062000f58565b60405180910390fd5b6000818533858730604051620004d99062000a27565b620004ea9695949392919062000fce565b604051809103906000f08015801562000507573d6000803e3d6000fd5b50905080600160003373ffffffffffffffffffffffffffffffffffffffff1673ffffffffffffffffffffffffffffffffffffffff16815260200190815260200160002060006101000a81548173ffffffffffffffffffffffffffffffffffffffff021916908373ffffffffffffffffffffffffffffffffffffffff16021790555033600260008373ffffffffffffffffffffffffffffffffffffffff1673ffffffffffffffffffffffffffffffffffffffff16815260200190815260200160002060006101000a81548173ffffffffffffffffffffffffffffffffffffffff021916908373ffffffffffffffffffffffffffffffffffffffff1602179055506000339080600181540180825580915050600190039060005260206000200160009091909190916101000a81548173ffffffffffffffffffffffffffffffffffffffff021916908373ffffffffffffffffffffffffffffffffffffffff160217905550505050505050565b60016020528060005260406000206000915054906101000a900473ffffffffffffffffffffffffffffffffffffffff1681565b600073ffffffffffffffffffffffffffffffffffffffff16600260003373ffffffffffffffffffffffffffffffffffffffff1673ffffffffffffffffffffffffffffffffffffffff16815260200190815260200160002060009054906101000a900473ffffffffffffffffffffffffffffffffffffffff1673ffffffffffffffffffffffffffffffffffffffff16036200073d57600080fd5b600033905060008173ffffffffffffffffffffffffffffffffffffffff166371127ed26040518163ffffffff1660e01b8152600401602060405180830381865afa15801562000790573d6000803e3d6000fd5b505050506040513d601f19601f82011682018060405250810190620007b6919062001052565b905060008103620007fe576040517f08c379a0000000000000000000000000000000000000000000000000000000008152600401620007f590620010d4565b60405180910390fd5b47811062000843576040517f08c379a00000000000000000000000000000000000000000000000000000000081526004016200083a9062001146565b60405180910390fd5b60003373ffffffffffffffffffffffffffffffffffffffff16826040516200086b9062000d8d565b60006040518083038185875af1925050503d8060008114620008aa576040519150601f19603f3d011682016040523d82523d6000602084013e620008af565b606091505b5050905080620008f6576040517f08c379a0000000000000000000000000000000000000000000000000000000008152600401620008ed90620011b8565b60405180910390fd5b505050565b60026020528060005260406000206000915054906101000a900473ffffffffffffffffffffffffffffffffffffffff1681565b6000600160008373ffffffffffffffffffffffffffffffffffffffff1673ffffffffffffffffffffffffffffffffffffffff16815260200190815260200160002060009054906101000a900473ffffffffffffffffffffffffffffffffffffffff169050919050565b6060600080548060200260200160405190810160405280929190818152602001828054801562000a1d57602002820191906000526020600020905b8160009054906101000a900473ffffffffffffffffffffffffffffffffffffffff1673ffffffffffffffffffffffffffffffffffffffff1681526020019060010190808311620009d2575b5050505050905090565b61122780620011db83390190565b600080fd5b6000819050919050565b62000a4f8162000a3a565b811462000a5b57600080fd5b50565b60008135905062000a6f8162000a44565b92915050565b60006020828403121562000a8e5762000a8d62000a35565b5b600062000a9e8482850162000a5e565b91505092915050565b600060ff82169050919050565b62000abf8162000aa7565b811462000acb57600080fd5b50565b60008135905062000adf8162000ab4565b92915050565b60006020828403121562000afe5762000afd62000a35565b5b600062000b0e8482850162000ace565b91505092915050565b62000b228162000aa7565b82525050565b600060208201905062000b3f600083018462000b17565b92915050565b600073ffffffffffffffffffffffffffffffffffffffff82169050919050565b600062000b728262000b45565b9050919050565b62000b848162000b65565b811462000b9057600080fd5b50565b60008135905062000ba48162000b79565b92915050565b60008060006060848603121562000bc65762000bc562000a35565b5b600062000bd68682870162000ace565b935050602062000be98682870162000b93565b925050604062000bfc8682870162000a5e565b9150509250925092565b60006020828403121562000c1f5762000c1e62000a35565b5b600062000c2f8482850162000b93565b91505092915050565b62000c438162000b65565b82525050565b600060208201905062000c60600083018462000c38565b92915050565b600081519050919050565b600082825260208201905092915050565b6000819050602082019050919050565b62000c9d8162000b65565b82525050565b600062000cb1838362000c92565b60208301905092915050565b6000602082019050919050565b600062000cd78262000c66565b62000ce3818562000c71565b935062000cf08362000c82565b8060005b8381101562000d2757815162000d0b888262000ca3565b975062000d188362000cbd565b92505060018101905062000cf4565b5085935050505092915050565b6000602082019050818103600083015262000d50818462000cca565b905092915050565b600081905092915050565b50565b600062000d7560008362000d58565b915062000d828262000d63565b600082019050919050565b600062000d9a8262000d66565b9150819050919050565b600082825260208201905092915050565b7f496e76616c696420506c616e0000000000000000000000000000000000000000600082015250565b600062000ded600c8362000da4565b915062000dfa8262000db5565b602082019050919050565b6000602082019050818103600083015262000e208162000dde565b9050919050565b7f4e487b7100000000000000000000000000000000000000000000000000000000600052601160045260246000fd5b600062000e638262000a3a565b915062000e708362000a3a565b925082820262000e808162000a3a565b9150828204841483151762000e9a5762000e9962000e27565b5b5092915050565b7f4e487b7100000000000000000000000000000000000000000000000000000000600052601260045260246000fd5b600062000edd8262000a3a565b915062000eea8362000a3a565b92508262000efd5762000efc62000ea1565b5b828204905092915050565b7f4e6f742073656e6420496e737572616e636520416d6f756e7400000000000000600082015250565b600062000f4060198362000da4565b915062000f4d8262000f08565b602082019050919050565b6000602082019050818103600083015262000f738162000f31565b9050919050565b6000819050919050565b600062000fa562000f9f62000f998462000aa7565b62000f7a565b62000a3a565b9050919050565b62000fb78162000f84565b82525050565b62000fc88162000a3a565b82525050565b600060c08201905062000fe5600083018962000fac565b62000ff4602083018862000c38565b62001003604083018762000c38565b62001012606083018662000fbd565b62001021608083018562000fbd565b6200103060a083018462000c38565b979650505050505050565b6000815190506200104c8162000a44565b92915050565b6000602082840312156200106b576200106a62000a35565b5b60006200107b848285016200103b565b91505092915050565b7f436c61696d20416d6f756e742053686f756c64206e6f74206265203000000000600082015250565b6000620010bc601c8362000da4565b9150620010c98262001084565b602082019050919050565b60006020820190508181036000830152620010ef81620010ad565b9050919050565b7f4e6f7420656e6f7567682046756e647320696e20436f6e747261637400000000600082015250565b60006200112e601c8362000da4565b91506200113b82620010f6565b602082019050919050565b6000602082019050818103600083015262001161816200111f565b9050919050565b7f5472616e73616374696f6e20776173206e6f7420737563636573737366756c00600082015250565b6000620011a0601f8362000da4565b9150620011ad8262001168565b602082019050919050565b60006020820190508181036000830152620011d38162001191565b905091905056fe6101406040523480156200001257600080fd5b5060405162001227380380620012278339818101604052810190620000389190620001bc565b8560c081815250508473ffffffffffffffffffffffffffffffffffffffff1660a08173ffffffffffffffffffffffffffffffffffffffff16815250508373ffffffffffffffffffffffffffffffffffffffff1660808173ffffffffffffffffffffffffffffffffffffffff16815250508260e081815250506228206f82620000c1919062000287565b42620000ce9190620002d2565b61010081815250508073ffffffffffffffffffffffffffffffffffffffff166101208173ffffffffffffffffffffffffffffffffffffffff16815250505050505050506200030d565b600080fd5b6000819050919050565b62000131816200011c565b81146200013d57600080fd5b50565b600081519050620001518162000126565b92915050565b600073ffffffffffffffffffffffffffffffffffffffff82169050919050565b6000620001848262000157565b9050919050565b620001968162000177565b8114620001a257600080fd5b50565b600081519050620001b6816200018b565b92915050565b60008060008060008060c08789031215620001dc57620001db62000117565b5b6000620001ec89828a0162000140565b9650506020620001ff89828a01620001a5565b95505060406200021289828a01620001a5565b94505060606200022589828a0162000140565b93505060806200023889828a0162000140565b92505060a06200024b89828a01620001a5565b9150509295509295509295565b7f4e487b7100000000000000000000000000000000000000000000000000000000600052601160045260246000fd5b600062000294826200011c565b9150620002a1836200011c565b9250828202620002b1816200011c565b91508282048414831517620002cb57620002ca62000258565b5b5092915050565b6000620002df826200011c565b9150620002ec836200011c565b925082820190508082111562000307576200030662000258565b5b92915050565b60805160a05160c05160e0516101005161012051610e7d620003aa600039600061034001526000818161021c01526107c60152600081816104b40152818161072c0152818161087901526108cb01526000818161049001526108aa01526000818161067a0152818161074d0152610841015260008181610240015281816104e80152818161050c0152818161059c015261069e0152610e7d6000f3fe6080604052600436106100955760003560e01c8063830953ab11610059578063830953ab146101645780638da5cb5b1461018f578063e777468b146101ba578063e834a834146101c4578063f6b4dfb4146101ef5761009c565b80633e98d1fb146100a15780634e71d92d146100cc57806353e06571146100e3578063563fa5fe1461010e57806371127ed2146101395761009c565b3661009c57005b600080fd5b3480156100ad57600080fd5b506100b661021a565b6040516100c39190610939565b60405180910390f35b3480156100d857600080fd5b506100e161023e565b005b3480156100ef57600080fd5b506100f861048e565b6040516101059190610939565b60405180910390f35b34801561011a57600080fd5b506101236104b2565b6040516101309190610939565b60405180910390f35b34801561014557600080fd5b5061014e6104d6565b60405161015b9190610939565b60405180910390f35b34801561017057600080fd5b506101796104e0565b6040516101869190610939565b60405180910390f35b34801561019b57600080fd5b506101a46104e6565b6040516101b19190610995565b60405180910390f35b6101c261050a565b005b3480156101d057600080fd5b506101d9610667565b6040516101e691906109cb565b60405180910390f35b3480156101fb57600080fd5b50610204610678565b6040516102119190610995565b60405180910390f35b7f000000000000000000000000000000000000000000000000000000000000000081565b7f000000000000000000000000000000000000000000000000000000000000000073ffffffffffffffffffffffffffffffffffffffff163373ffffffffffffffffffffffffffffffffffffffff16146102cc576040517f08c379a00000000000000000000000000000000000000000000000000000000081526004016102c390610a43565b60405180910390fd5b60008054906101000a900460ff161561031a576040517f08c379a000000000000000000000000000000000000000000000000000000000815260040161031190610aaf565b60405180910390fd5b61032261069c565b60016000806101000a81548160ff02191690831515021790555060007f000000000000000000000000000000000000000000000000000000000000000073ffffffffffffffffffffffffffffffffffffffff166040516024016040516020818303038152906040527fa75ac608000000000000000000000000000000000000000000000000000000007bffffffffffffffffffffffffffffffffffffffffffffffffffffffff19166020820180517bffffffffffffffffffffffffffffffffffffffffffffffffffffffff83818316178352505050506040516104059190610b40565b6000604051808303816000865af19150503d8060008114610442576040519150601f19603f3d011682016040523d82523d6000602084013e610447565b606091505b505090508061048b576040517f08c379a000000000000000000000000000000000000000000000000000000000815260040161048290610ba3565b60405180910390fd5b50565b7f000000000000000000000000000000000000000000000000000000000000000081565b7f000000000000000000000000000000000000000000000000000000000000000081565b6000600154905090565b60015481565b7f000000000000000000000000000000000000000000000000000000000000000081565b7f000000000000000000000000000000000000000000000000000000000000000073ffffffffffffffffffffffffffffffffffffffff163373ffffffffffffffffffffffffffffffffffffffff1614610598576040517f08c379a000000000000000000000000000000000000000000000000000000000815260040161058f90610a43565b60405180910390fd5b60007f000000000000000000000000000000000000000000000000000000000000000073ffffffffffffffffffffffffffffffffffffffff16476040516105de90610be9565b60006040518083038185875af1925050503d806000811461061b576040519150601f19603f3d011682016040523d82523d6000602084013e610620565b606091505b5050905080610664576040517f08c379a000000000000000000000000000000000000000000000000000000000815260040161065b90610c4a565b60405180910390fd5b50565b60008054906101000a900460ff1681565b7f000000000000000000000000000000000000000000000000000000000000000081565b7f000000000000000000000000000000000000000000000000000000000000000073ffffffffffffffffffffffffffffffffffffffff163373ffffffffffffffffffffffffffffffffffffffff161461072a576040517f08c379a000000000000000000000000000000000000000000000000000000000815260040161072190610a43565b60405180910390fd5b7f00000000000000000000000000000000000000000000000000000000000000007f000000000000000000000000000000000000000000000000000000000000000073ffffffffffffffffffffffffffffffffffffffff1631106107c3576040517f08c379a00000000000000000000000000000000000000000000000000000000081526004016107ba90610cb6565b60405180910390fd5b427f000000000000000000000000000000000000000000000000000000000000000011610825576040517f08c379a000000000000000000000000000000000000000000000000000000000815260040161081c90610d22565b60405180910390fd5b60008054906101000a900460ff161561083d57600080fd5b60007f000000000000000000000000000000000000000000000000000000000000000073ffffffffffffffffffffffffffffffffffffffff16317f00000000000000000000000000000000000000000000000000000000000000006108a29190610d71565b90506000600a7f00000000000000000000000000000000000000000000000000000000000000007f00000000000000000000000000000000000000000000000000000000000000006108f49190610da5565b6108fe9190610e16565b905080821015610914578160018190555061091c565b806001819055505b5050565b6000819050919050565b61093381610920565b82525050565b600060208201905061094e600083018461092a565b92915050565b600073ffffffffffffffffffffffffffffffffffffffff82169050919050565b600061097f82610954565b9050919050565b61098f81610974565b82525050565b60006020820190506109aa6000830184610986565b92915050565b60008115159050919050565b6109c5816109b0565b82525050565b60006020820190506109e060008301846109bc565b92915050565b600082825260208201905092915050565b7f4f6e6c79204f776e657200000000000000000000000000000000000000000000600082015250565b6000610a2d600a836109e6565b9150610a38826109f7565b602082019050919050565b60006020820190508181036000830152610a5c81610a20565b9050919050565b7f416c726561647920436c61696d65642052657761726400000000000000000000600082015250565b6000610a996016836109e6565b9150610aa482610a63565b602082019050919050565b60006020820190508181036000830152610ac881610a8c565b9050919050565b600081519050919050565b600081905092915050565b60005b83811015610b03578082015181840152602081019050610ae8565b60008484015250505050565b6000610b1a82610acf565b610b248185610ada565b9350610b34818560208601610ae5565b80840191505092915050565b6000610b4c8284610b0f565b915081905092915050565b7f5472616e73616374696f6e204661696c656420696e20636c61696d0000000000600082015250565b6000610b8d601b836109e6565b9150610b9882610b57565b602082019050919050565b60006020820190508181036000830152610bbc81610b80565b9050919050565b50565b6000610bd3600083610ada565b9150610bde82610bc3565b600082019050919050565b6000610bf482610bc6565b9150819050919050565b7f4661696c6564205472616e73616374696f6e0000000000000000000000000000600082015250565b6000610c346012836109e6565b9150610c3f82610bfe565b602082019050919050565b60006020820190508181036000830152610c6381610c27565b9050919050565b7f5468657265206973206e6f206368616e676520696e2042616c616e6365000000600082015250565b6000610ca0601d836109e6565b9150610cab82610c6a565b602082019050919050565b60006020820190508181036000830152610ccf81610c93565b9050919050565b7f4f6f707320796f757220496e737572616e636520457870697265640000000000600082015250565b6000610d0c601b836109e6565b9150610d1782610cd6565b602082019050919050565b60006020820190508181036000830152610d3b81610cff565b9050919050565b7f4e487b7100000000000000000000000000000000000000000000000000000000600052601160045260246000fd5b6000610d7c82610920565b9150610d8783610920565b9250828203905081811115610d9f57610d9e610d42565b5b92915050565b6000610db082610920565b9150610dbb83610920565b9250828202610dc981610920565b91508282048414831517610de057610ddf610d42565b5b5092915050565b7f4e487b7100000000000000000000000000000000000000000000000000000000600052601260045260246000fd5b6000610e2182610920565b9150610e2c83610920565b925082610e3c57610e3b610de7565b5b82820490509291505056fea2646970667358221220e9531a7f936161b5fc2bded55a7bd9b163629feafde8b5bdf1a1db2b10be244064736f6c63430008120033a264697066735822122060cffef9f684d29db15018e44b4905339d960aae283537c514e1220bc9ec1a8864736f6c63430008120033","opcodes":"PUSH1 0xA0 PUSH1 0x40 MSTORE PUSH8 0xDE0B6B3A7640000 CALLVALUE LT ISZERO PUSH2 0x19 JUMPI PUSH1 0x0 DUP1 REVERT JUMPDEST CALLER PUSH20 0xFFFFFFFFFFFFFFFFFFFFFFFFFFFFFFFFFFFFFFFF AND PUSH1 0x80 DUP2 PUSH20 0xFFFFFFFFFFFFFFFFFFFFFFFFFFFFFFFFFFFFFFFF AND DUP2 MSTORE POP POP PUSH1 0x1 PUSH1 0x3 PUSH1 0x0 PUSH1 0x1 PUSH1 0xFF AND DUP2 MSTORE PUSH1 0x20 ADD SWAP1 DUP2 MSTORE PUSH1 0x20 ADD PUSH1 0x0 KECCAK256 PUSH1 0x0 PUSH2 0x100 EXP DUP2 SLOAD DUP2 PUSH1 0xFF MUL NOT AND SWAP1 DUP4 PUSH1 0xFF AND MUL OR SWAP1 SSTORE POP PUSH1 0x5 PUSH1 0x3 PUSH1 0x0 PUSH1 0x2 PUSH1 0xFF AND DUP2 MSTORE PUSH1 0x20 ADD SWAP1 DUP2 MSTORE PUSH1 0x20 ADD PUSH1 0x0 KECCAK256 PUSH1 0x0 PUSH2 0x100 EXP DUP2 SLOAD DUP2 PUSH1 0xFF MUL NOT AND SWAP1 DUP4 PUSH1 0xFF AND MUL OR SWAP1 SSTORE POP PUSH1 0xA PUSH1 0x3 PUSH1 0x0 PUSH1 0x3 PUSH1 0xFF AND DUP2 MSTORE PUSH1 0x20 ADD SWAP1 DUP2 MSTORE PUSH1 0x20 ADD PUSH1 0x0 KECCAK256 PUSH1 0x0 PUSH2 0x100 EXP DUP2 SLOAD DUP2 PUSH1 0xFF MUL NOT AND SWAP1 DUP4 PUSH1 0xFF AND MUL OR SWAP1 SSTORE POP PUSH1 0x80 MLOAD PUSH2 0x2437 PUSH2 0xFB PUSH1 0x0 CODECOPY PUSH1 0x0 PUSH2 0x226 ADD MSTORE PUSH2 0x2437 PUSH1 0x0 RETURN INVALID PUSH1 0x80 PUSH1 0x40 MSTORE PUSH1 0x4 CALLDATASIZE LT PUSH3 0x8B JUMPI PUSH1 0x0 CALLDATALOAD PUSH1 0xE0 SHR DUP1 PUSH4 0xA75AC608 GT PUSH3 0x55 JUMPI DUP1 PUSH4 0xA75AC608 EQ PUSH3 0x160 JUMPI DUP1 PUSH4 0xAF9B82D9 EQ PUSH3 0x16C JUMPI DUP1 PUSH4 0xE2978F3A EQ PUSH3 0x1B0 JUMPI DUP1 PUSH4 0xF1BA7127 EQ PUSH3 0x1F4 JUMPI PUSH3 0x93 JUMP JUMPDEST DUP1 PUSH4 0x2E1A7D4D EQ PUSH3 0x98 JUMPI DUP1 PUSH4 0x60A31A88 EQ PUSH3 0xB8 JUMPI DUP1 PUSH4 0x6353B818 EQ PUSH3 0xFC JUMPI DUP1 PUSH4 0x95C1D18C EQ PUSH3 0x11C JUMPI PUSH3 0x93 JUMP JUMPDEST CALLDATASIZE PUSH3 0x93 JUMPI STOP JUMPDEST PUSH1 0x0 DUP1 REVERT JUMPDEST PUSH3 0xB6 PUSH1 0x4 DUP1 CALLDATASIZE SUB DUP2 ADD SWAP1 PUSH3 0xB0 SWAP2 SWAP1 PUSH3 0xA75 JUMP JUMPDEST PUSH3 0x224 JUMP JUMPDEST STOP JUMPDEST CALLVALUE DUP1 ISZERO PUSH3 0xC5 JUMPI PUSH1 0x0 DUP1 REVERT JUMPDEST POP PUSH3 0xE4 PUSH1 0x4 DUP1 CALLDATASIZE SUB DUP2 ADD SWAP1 PUSH3 0xDE SWAP2 SWAP1 PUSH3 0xAE5 JUMP JUMPDEST PUSH3 0x30A JUMP JUMPDEST PUSH1 0x40 MLOAD PUSH3 0xF3 SWAP2 SWAP1 PUSH3 0xB28 JUMP JUMPDEST PUSH1 0x40 MLOAD DUP1 SWAP2 SUB SWAP1 RETURN JUMPDEST PUSH3 0x11A PUSH1 0x4 DUP1 CALLDATASIZE SUB DUP2 ADD SWAP1 PUSH3 0x114 SWAP2 SWAP1 PUSH3 0xBAA JUMP JUMPDEST PUSH3 0x32A JUMP JUMPDEST STOP JUMPDEST CALLVALUE DUP1 ISZERO PUSH3 0x129 JUMPI PUSH1 0x0 DUP1 REVERT JUMPDEST POP PUSH3 0x148 PUSH1 0x4 DUP1 CALLDATASIZE SUB DUP2 ADD SWAP1 PUSH3 0x142 SWAP2 SWAP1 PUSH3 0xC06 JUMP JUMPDEST PUSH3 0x671 JUMP JUMPDEST PUSH1 0x40 MLOAD PUSH3 0x157 SWAP2 SWAP1 PUSH3 0xC49 JUMP JUMPDEST PUSH1 0x40 MLOAD DUP1 SWAP2 SUB SWAP1 RETURN JUMPDEST PUSH3 0x16A PUSH3 0x6A4 JUMP JUMPDEST STOP JUMPDEST CALLVALUE DUP1 ISZERO PUSH3 0x179 JUMPI PUSH1 0x0 DUP1 REVERT JUMPDEST POP PUSH3 0x198 PUSH1 0x4 DUP1 CALLDATASIZE SUB DUP2 ADD SWAP1 PUSH3 0x192 SWAP2 SWAP1 PUSH3 0xC06 JUMP JUMPDEST PUSH3 0x8FB JUMP JUMPDEST PUSH1 0x40 MLOAD PUSH3 0x1A7 SWAP2 SWAP1 PUSH3 0xC49 JUMP JUMPDEST PUSH1 0x40 MLOAD DUP1 SWAP2 SUB SWAP1 RETURN JUMPDEST CALLVALUE DUP1 ISZERO PUSH3 0x1BD JUMPI PUSH1 0x0 DUP1 REVERT JUMPDEST POP PUSH3 0x1DC PUSH1 0x4 DUP1 CALLDATASIZE SUB DUP2 ADD SWAP1 PUSH3 0x1D6 SWAP2 SWAP1 PUSH3 0xC06 JUMP JUMPDEST PUSH3 0x92E JUMP JUMPDEST PUSH1 0x40 MLOAD PUSH3 0x1EB SWAP2 SWAP1 PUSH3 0xC49 JUMP JUMPDEST PUSH1 0x40 MLOAD DUP1 SWAP2 SUB SWAP1 RETURN JUMPDEST CALLVALUE DUP1 ISZERO PUSH3 0x201 JUMPI PUSH1 0x0 DUP1 REVERT JUMPDEST POP PUSH3 0x20C PUSH3 0x997 JUMP JUMPDEST PUSH1 0x40 MLOAD PUSH3 0x21B SWAP2 SWAP1 PUSH3 0xD34 JUMP JUMPDEST PUSH1 0x40 MLOAD DUP1 SWAP2 SUB SWAP1 RETURN JUMPDEST PUSH32 0x0 PUSH20 0xFFFFFFFFFFFFFFFFFFFFFFFFFFFFFFFFFFFFFFFF AND CALLER PUSH20 0xFFFFFFFFFFFFFFFFFFFFFFFFFFFFFFFFFFFFFFFF AND EQ PUSH3 0x27D JUMPI PUSH1 0x0 DUP1 REVERT JUMPDEST DUP1 SELFBALANCE LT ISZERO PUSH3 0x28B JUMPI PUSH1 0x0 DUP1 REVERT JUMPDEST PUSH1 0x0 CALLER PUSH20 0xFFFFFFFFFFFFFFFFFFFFFFFFFFFFFFFFFFFFFFFF AND DUP3 PUSH1 0x40 MLOAD PUSH3 0x2B3 SWAP1 PUSH3 0xD8D JUMP JUMPDEST PUSH1 0x0 PUSH1 0x40 MLOAD DUP1 DUP4 SUB DUP2 DUP6 DUP8 GAS CALL SWAP3 POP POP POP RETURNDATASIZE DUP1 PUSH1 0x0 DUP2 EQ PUSH3 0x2F2 JUMPI PUSH1 0x40 MLOAD SWAP2 POP PUSH1 0x1F NOT PUSH1 0x3F RETURNDATASIZE ADD AND DUP3 ADD PUSH1 0x40 MSTORE RETURNDATASIZE DUP3 MSTORE RETURNDATASIZE PUSH1 0x0 PUSH1 0x20 DUP5 ADD RETURNDATACOPY PUSH3 0x2F7 JUMP JUMPDEST PUSH1 0x60 SWAP2 POP JUMPDEST POP POP SWAP1 POP DUP1 PUSH3 0x306 JUMPI PUSH1 0x0 DUP1 REVERT JUMPDEST POP POP JUMP JUMPDEST PUSH1 0x3 PUSH1 0x20 MSTORE DUP1 PUSH1 0x0 MSTORE PUSH1 0x40 PUSH1 0x0 KECCAK256 PUSH1 0x0 SWAP2 POP SLOAD SWAP1 PUSH2 0x100 EXP SWAP1 DIV PUSH1 0xFF AND DUP2 JUMP JUMPDEST PUSH1 0x0 PUSH20 0xFFFFFFFFFFFFFFFFFFFFFFFFFFFFFFFFFFFFFFFF AND PUSH1 0x1 PUSH1 0x0 CALLER PUSH20 0xFFFFFFFFFFFFFFFFFFFFFFFFFFFFFFFFFFFFFFFF AND PUSH20 0xFFFFFFFFFFFFFFFFFFFFFFFFFFFFFFFFFFFFFFFF AND DUP2 MSTORE PUSH1 0x20 ADD SWAP1 DUP2 MSTORE PUSH1 0x20 ADD PUSH1 0x0 KECCAK256 PUSH1 0x0 SWAP1 SLOAD SWAP1 PUSH2 0x100 EXP SWAP1 DIV PUSH20 0xFFFFFFFFFFFFFFFFFFFFFFFFFFFFFFFFFFFFFFFF AND PUSH20 0xFFFFFFFFFFFFFFFFFFFFFFFFFFFFFFFFFFFFFFFF AND EQ PUSH3 0x3C3 JUMPI PUSH1 0x0 DUP1 REVERT JUMPDEST PUSH1 0x0 DUP3 PUSH20 0xFFFFFFFFFFFFFFFFFFFFFFFFFFFFFFFFFFFFFFFF AND BALANCE SWAP1 POP PUSH1 0x0 PUSH1 0x3 PUSH1 0x0 DUP7 PUSH1 0xFF AND PUSH1 0xFF AND DUP2 MSTORE PUSH1 0x20 ADD SWAP1 DUP2 MSTORE PUSH1 0x20 ADD PUSH1 0x0 KECCAK256 PUSH1 0x0 SWAP1 SLOAD SWAP1 PUSH2 0x100 EXP SWAP1 DIV PUSH1 0xFF AND SWAP1 POP PUSH1 0x0 DUP2 PUSH1 0xFF AND SUB PUSH3 0x453 JUMPI PUSH1 0x40 MLOAD PUSH32 0x8C379A000000000000000000000000000000000000000000000000000000000 DUP2 MSTORE PUSH1 0x4 ADD PUSH3 0x44A SWAP1 PUSH3 0xE05 JUMP JUMPDEST PUSH1 0x40 MLOAD DUP1 SWAP2 SUB SWAP1 REVERT JUMPDEST PUSH1 0x64 DUP4 DUP3 PUSH1 0xFF AND DUP5 PUSH3 0x467 SWAP2 SWAP1 PUSH3 0xE56 JUMP JUMPDEST PUSH3 0x473 SWAP2 SWAP1 PUSH3 0xE56 JUMP JUMPDEST PUSH3 0x47F SWAP2 SWAP1 PUSH3 0xED0 JUMP JUMPDEST CALLVALUE EQ PUSH3 0x4C3 JUMPI PUSH1 0x40 MLOAD PUSH32 0x8C379A000000000000000000000000000000000000000000000000000000000 DUP2 MSTORE PUSH1 0x4 ADD PUSH3 0x4BA SWAP1 PUSH3 0xF58 JUMP JUMPDEST PUSH1 0x40 MLOAD DUP1 SWAP2 SUB SWAP1 REVERT JUMPDEST PUSH1 0x0 DUP2 DUP6 CALLER DUP6 DUP8 ADDRESS PUSH1 0x40 MLOAD PUSH3 0x4D9 SWAP1 PUSH3 0xA27 JUMP JUMPDEST PUSH3 0x4EA SWAP7 SWAP6 SWAP5 SWAP4 SWAP3 SWAP2 SWAP1 PUSH3 0xFCE JUMP JUMPDEST PUSH1 0x40 MLOAD DUP1 SWAP2 SUB SWAP1 PUSH1 0x0 CREATE DUP1 ISZERO DUP1 ISZERO PUSH3 0x507 JUMPI RETURNDATASIZE PUSH1 0x0 DUP1 RETURNDATACOPY RETURNDATASIZE PUSH1 0x0 REVERT JUMPDEST POP SWAP1 POP DUP1 PUSH1 0x1 PUSH1 0x0 CALLER PUSH20 0xFFFFFFFFFFFFFFFFFFFFFFFFFFFFFFFFFFFFFFFF AND PUSH20 0xFFFFFFFFFFFFFFFFFFFFFFFFFFFFFFFFFFFFFFFF AND DUP2 MSTORE PUSH1 0x20 ADD SWAP1 DUP2 MSTORE PUSH1 0x20 ADD PUSH1 0x0 KECCAK256 PUSH1 0x0 PUSH2 0x100 EXP DUP2 SLOAD DUP2 PUSH20 0xFFFFFFFFFFFFFFFFFFFFFFFFFFFFFFFFFFFFFFFF MUL NOT AND SWAP1 DUP4 PUSH20 0xFFFFFFFFFFFFFFFFFFFFFFFFFFFFFFFFFFFFFFFF AND MUL OR SWAP1 SSTORE POP CALLER PUSH1 0x2 PUSH1 0x0 DUP4 PUSH20 0xFFFFFFFFFFFFFFFFFFFFFFFFFFFFFFFFFFFFFFFF AND PUSH20 0xFFFFFFFFFFFFFFFFFFFFFFFFFFFFFFFFFFFFFFFF AND DUP2 MSTORE PUSH1 0x20 ADD SWAP1 DUP2 MSTORE PUSH1 0x20 ADD PUSH1 0x0 KECCAK256 PUSH1 0x0 PUSH2 0x100 EXP DUP2 SLOAD DUP2 PUSH20 0xFFFFFFFFFFFFFFFFFFFFFFFFFFFFFFFFFFFFFFFF MUL NOT AND SWAP1 DUP4 PUSH20 0xFFFFFFFFFFFFFFFFFFFFFFFFFFFFFFFFFFFFFFFF AND MUL OR SWAP1 SSTORE POP PUSH1 0x0 CALLER SWAP1 DUP1 PUSH1 0x1 DUP2 SLOAD ADD DUP1 DUP3 SSTORE DUP1 SWAP2 POP POP PUSH1 0x1 SWAP1 SUB SWAP1 PUSH1 0x0 MSTORE PUSH1 0x20 PUSH1 0x0 KECCAK256 ADD PUSH1 0x0 SWAP1 SWAP2 SWAP1 SWAP2 SWAP1 SWAP2 PUSH2 0x100 EXP DUP2 SLOAD DUP2 PUSH20 0xFFFFFFFFFFFFFFFFFFFFFFFFFFFFFFFFFFFFFFFF MUL NOT AND SWAP1 DUP4 PUSH20 0xFFFFFFFFFFFFFFFFFFFFFFFFFFFFFFFFFFFFFFFF AND MUL OR SWAP1 SSTORE POP POP POP POP POP POP POP JUMP JUMPDEST PUSH1 0x1 PUSH1 0x20 MSTORE DUP1 PUSH1 0x0 MSTORE PUSH1 0x40 PUSH1 0x0 KECCAK256 PUSH1 0x0 SWAP2 POP SLOAD SWAP1 PUSH2 0x100 EXP SWAP1 DIV PUSH20 0xFFFFFFFFFFFFFFFFFFFFFFFFFFFFFFFFFFFFFFFF AND DUP2 JUMP JUMPDEST PUSH1 0x0 PUSH20 0xFFFFFFFFFFFFFFFFFFFFFFFFFFFFFFFFFFFFFFFF AND PUSH1 0x2 PUSH1 0x0 CALLER PUSH20 0xFFFFFFFFFFFFFFFFFFFFFFFFFFFFFFFFFFFFFFFF AND PUSH20 0xFFFFFFFFFFFFFFFFFFFFFFFFFFFFFFFFFFFFFFFF AND DUP2 MSTORE PUSH1 0x20 ADD SWAP1 DUP2 MSTORE PUSH1 0x20 ADD PUSH1 0x0 KECCAK256 PUSH1 0x0 SWAP1 SLOAD SWAP1 PUSH2 0x100 EXP SWAP1 DIV PUSH20 0xFFFFFFFFFFFFFFFFFFFFFFFFFFFFFFFFFFFFFFFF AND PUSH20 0xFFFFFFFFFFFFFFFFFFFFFFFFFFFFFFFFFFFFFFFF AND SUB PUSH3 0x73D JUMPI PUSH1 0x0 DUP1 REVERT JUMPDEST PUSH1 0x0 CALLER SWAP1 POP PUSH1 0x0 DUP2 PUSH20 0xFFFFFFFFFFFFFFFFFFFFFFFFFFFFFFFFFFFFFFFF AND PUSH4 0x71127ED2 PUSH1 0x40 MLOAD DUP2 PUSH4 0xFFFFFFFF AND PUSH1 0xE0 SHL DUP2 MSTORE PUSH1 0x4 ADD PUSH1 0x20 PUSH1 0x40 MLOAD DUP1 DUP4 SUB DUP2 DUP7 GAS STATICCALL ISZERO DUP1 ISZERO PUSH3 0x790 JUMPI RETURNDATASIZE PUSH1 0x0 DUP1 RETURNDATACOPY RETURNDATASIZE PUSH1 0x0 REVERT JUMPDEST POP POP POP POP PUSH1 0x40 MLOAD RETURNDATASIZE PUSH1 0x1F NOT PUSH1 0x1F DUP3 ADD AND DUP3 ADD DUP1 PUSH1 0x40 MSTORE POP DUP2 ADD SWAP1 PUSH3 0x7B6 SWAP2 SWAP1 PUSH3 0x1052 JUMP JUMPDEST SWAP1 POP PUSH1 0x0 DUP2 SUB PUSH3 0x7FE JUMPI PUSH1 0x40 MLOAD PUSH32 0x8C379A000000000000000000000000000000000000000000000000000000000 DUP2 MSTORE PUSH1 0x4 ADD PUSH3 0x7F5 SWAP1 PUSH3 0x10D4 JUMP JUMPDEST PUSH1 0x40 MLOAD DUP1 SWAP2 SUB SWAP1 REVERT JUMPDEST SELFBALANCE DUP2 LT PUSH3 0x843 JUMPI PUSH1 0x40 MLOAD PUSH32 0x8C379A000000000000000000000000000000000000000000000000000000000 DUP2 MSTORE PUSH1 0x4 ADD PUSH3 0x83A SWAP1 PUSH3 0x1146 JUMP JUMPDEST PUSH1 0x40 MLOAD DUP1 SWAP2 SUB SWAP1 REVERT JUMPDEST PUSH1 0x0 CALLER PUSH20 0xFFFFFFFFFFFFFFFFFFFFFFFFFFFFFFFFFFFFFFFF AND DUP3 PUSH1 0x40 MLOAD PUSH3 0x86B SWAP1 PUSH3 0xD8D JUMP JUMPDEST PUSH1 0x0 PUSH1 0x40 MLOAD DUP1 DUP4 SUB DUP2 DUP6 DUP8 GAS CALL SWAP3 POP POP POP RETURNDATASIZE DUP1 PUSH1 0x0 DUP2 EQ PUSH3 0x8AA JUMPI PUSH1 0x40 MLOAD SWAP2 POP PUSH1 0x1F NOT PUSH1 0x3F RETURNDATASIZE ADD AND DUP3 ADD PUSH1 0x40 MSTORE RETURNDATASIZE DUP3 MSTORE RETURNDATASIZE PUSH1 0x0 PUSH1 0x20 DUP5 ADD RETURNDATACOPY PUSH3 0x8AF JUMP JUMPDEST PUSH1 0x60 SWAP2 POP JUMPDEST POP POP SWAP1 POP DUP1 PUSH3 0x8F6 JUMPI PUSH1 0x40 MLOAD PUSH32 0x8C379A000000000000000000000000000000000000000000000000000000000 DUP2 MSTORE PUSH1 0x4 ADD PUSH3 0x8ED SWAP1 PUSH3 0x11B8 JUMP JUMPDEST PUSH1 0x40 MLOAD DUP1 SWAP2 SUB SWAP1 REVERT JUMPDEST POP POP POP JUMP JUMPDEST PUSH1 0x2 PUSH1 0x20 MSTORE DUP1 PUSH1 0x0 MSTORE PUSH1 0x40 PUSH1 0x0 KECCAK256 PUSH1 0x0 SWAP2 POP SLOAD SWAP1 PUSH2 0x100 EXP SWAP1 DIV PUSH20 0xFFFFFFFFFFFFFFFFFFFFFFFFFFFFFFFFFFFFFFFF AND DUP2 JUMP JUMPDEST PUSH1 0x0 PUSH1 0x1 PUSH1 0x0 DUP4 PUSH20 0xFFFFFFFFFFFFFFFFFFFFFFFFFFFFFFFFFFFFFFFF AND PUSH20 0xFFFFFFFFFFFFFFFFFFFFFFFFFFFFFFFFFFFFFFFF AND DUP2 MSTORE PUSH1 0x20 ADD SWAP1 DUP2 MSTORE PUSH1 0x20 ADD PUSH1 0x0 KECCAK256 PUSH1 0x0 SWAP1 SLOAD SWAP1 PUSH2 0x100 EXP SWAP1 DIV PUSH20 0xFFFFFFFFFFFFFFFFFFFFFFFFFFFFFFFFFFFFFFFF AND SWAP1 POP SWAP2 SWAP1 POP JUMP JUMPDEST PUSH1 0x60 PUSH1 0x0 DUP1 SLOAD DUP1 PUSH1 0x20 MUL PUSH1 0x20 ADD PUSH1 0x40 MLOAD SWAP1 DUP2 ADD PUSH1 0x40 MSTORE DUP1 SWAP3 SWAP2 SWAP1 DUP2 DUP2 MSTORE PUSH1 0x20 ADD DUP3 DUP1 SLOAD DUP1 ISZERO PUSH3 0xA1D JUMPI PUSH1 0x20 MUL DUP3 ADD SWAP2 SWAP1 PUSH1 0x0 MSTORE PUSH1 0x20 PUSH1 0x0 KECCAK256 SWAP1 JUMPDEST DUP2 PUSH1 0x0 SWAP1 SLOAD SWAP1 PUSH2 0x100 EXP SWAP1 DIV PUSH20 0xFFFFFFFFFFFFFFFFFFFFFFFFFFFFFFFFFFFFFFFF AND PUSH20 0xFFFFFFFFFFFFFFFFFFFFFFFFFFFFFFFFFFFFFFFF AND DUP2 MSTORE PUSH1 0x20 ADD SWAP1 PUSH1 0x1 ADD SWAP1 DUP1 DUP4 GT PUSH3 0x9D2 JUMPI JUMPDEST POP POP POP POP POP SWAP1 POP SWAP1 JUMP JUMPDEST PUSH2 0x1227 DUP1 PUSH3 0x11DB DUP4 CODECOPY ADD SWAP1 JUMP JUMPDEST PUSH1 0x0 DUP1 REVERT JUMPDEST PUSH1 0x0 DUP2 SWAP1 POP SWAP2 SWAP1 POP JUMP JUMPDEST PUSH3 0xA4F DUP2 PUSH3 0xA3A JUMP JUMPDEST DUP2 EQ PUSH3 0xA5B JUMPI PUSH1 0x0 DUP1 REVERT JUMPDEST POP JUMP JUMPDEST PUSH1 0x0 DUP2 CALLDATALOAD SWAP1 POP PUSH3 0xA6F DUP2 PUSH3 0xA44 JUMP JUMPDEST SWAP3 SWAP2 POP POP JUMP JUMPDEST PUSH1 0x0 PUSH1 0x20 DUP3 DUP5 SUB SLT ISZERO PUSH3 0xA8E JUMPI PUSH3 0xA8D PUSH3 0xA35 JUMP JUMPDEST JUMPDEST PUSH1 0x0 PUSH3 0xA9E DUP5 DUP3 DUP6 ADD PUSH3 0xA5E JUMP JUMPDEST SWAP2 POP POP SWAP3 SWAP2 POP POP JUMP JUMPDEST PUSH1 0x0 PUSH1 0xFF DUP3 AND SWAP1 POP SWAP2 SWAP1 POP JUMP JUMPDEST PUSH3 0xABF DUP2 PUSH3 0xAA7 JUMP JUMPDEST DUP2 EQ PUSH3 0xACB JUMPI PUSH1 0x0 DUP1 REVERT JUMPDEST POP JUMP JUMPDEST PUSH1 0x0 DUP2 CALLDATALOAD SWAP1 POP PUSH3 0xADF DUP2 PUSH3 0xAB4 JUMP JUMPDEST SWAP3 SWAP2 POP POP JUMP JUMPDEST PUSH1 0x0 PUSH1 0x20 DUP3 DUP5 SUB SLT ISZERO PUSH3 0xAFE JUMPI PUSH3 0xAFD PUSH3 0xA35 JUMP JUMPDEST JUMPDEST PUSH1 0x0 PUSH3 0xB0E DUP5 DUP3 DUP6 ADD PUSH3 0xACE JUMP JUMPDEST SWAP2 POP POP SWAP3 SWAP2 POP POP JUMP JUMPDEST PUSH3 0xB22 DUP2 PUSH3 0xAA7 JUMP JUMPDEST DUP3 MSTORE POP POP JUMP JUMPDEST PUSH1 0x0 PUSH1 0x20 DUP3 ADD SWAP1 POP PUSH3 0xB3F PUSH1 0x0 DUP4 ADD DUP5 PUSH3 0xB17 JUMP JUMPDEST SWAP3 SWAP2 POP POP JUMP JUMPDEST PUSH1 0x0 PUSH20 0xFFFFFFFFFFFFFFFFFFFFFFFFFFFFFFFFFFFFFFFF DUP3 AND SWAP1 POP SWAP2 SWAP1 POP JUMP JUMPDEST PUSH1 0x0 PUSH3 0xB72 DUP3 PUSH3 0xB45 JUMP JUMPDEST SWAP1 POP SWAP2 SWAP1 POP JUMP JUMPDEST PUSH3 0xB84 DUP2 PUSH3 0xB65 JUMP JUMPDEST DUP2 EQ PUSH3 0xB90 JUMPI PUSH1 0x0 DUP1 REVERT JUMPDEST POP JUMP JUMPDEST PUSH1 0x0 DUP2 CALLDATALOAD SWAP1 POP PUSH3 0xBA4 DUP2 PUSH3 0xB79 JUMP JUMPDEST SWAP3 SWAP2 POP POP JUMP JUMPDEST PUSH1 0x0 DUP1 PUSH1 0x0 PUSH1 0x60 DUP5 DUP7 SUB SLT ISZERO PUSH3 0xBC6 JUMPI PUSH3 0xBC5 PUSH3 0xA35 JUMP JUMPDEST JUMPDEST PUSH1 0x0 PUSH3 0xBD6 DUP7 DUP3 DUP8 ADD PUSH3 0xACE JUMP JUMPDEST SWAP4 POP POP PUSH1 0x20 PUSH3 0xBE9 DUP7 DUP3 DUP8 ADD PUSH3 0xB93 JUMP JUMPDEST SWAP3 POP POP PUSH1 0x40 PUSH3 0xBFC DUP7 DUP3 DUP8 ADD PUSH3 0xA5E JUMP JUMPDEST SWAP2 POP POP SWAP3 POP SWAP3 POP SWAP3 JUMP JUMPDEST PUSH1 0x0 PUSH1 0x20 DUP3 DUP5 SUB SLT ISZERO PUSH3 0xC1F JUMPI PUSH3 0xC1E PUSH3 0xA35 JUMP JUMPDEST JUMPDEST PUSH1 0x0 PUSH3 0xC2F DUP5 DUP3 DUP6 ADD PUSH3 0xB93 JUMP JUMPDEST SWAP2 POP POP SWAP3 SWAP2 POP POP JUMP JUMPDEST PUSH3 0xC43 DUP2 PUSH3 0xB65 JUMP JUMPDEST DUP3 MSTORE POP POP JUMP JUMPDEST PUSH1 0x0 PUSH1 0x20 DUP3 ADD SWAP1 POP PUSH3 0xC60 PUSH1 0x0 DUP4 ADD DUP5 PUSH3 0xC38 JUMP JUMPDEST SWAP3 SWAP2 POP POP JUMP JUMPDEST PUSH1 0x0 DUP2 MLOAD SWAP1 POP SWAP2 SWAP1 POP JUMP JUMPDEST PUSH1 0x0 DUP3 DUP3 MSTORE PUSH1 0x20 DUP3 ADD SWAP1 POP SWAP3 SWAP2 POP POP JUMP JUMPDEST PUSH1 0x0 DUP2 SWAP1 POP PUSH1 0x20 DUP3 ADD SWAP1 POP SWAP2 SWAP1 POP JUMP JUMPDEST PUSH3 0xC9D DUP2 PUSH3 0xB65 JUMP JUMPDEST DUP3 MSTORE POP POP JUMP JUMPDEST PUSH1 0x0 PUSH3 0xCB1 DUP4 DUP4 PUSH3 0xC92 JUMP JUMPDEST PUSH1 0x20 DUP4 ADD SWAP1 POP SWAP3 SWAP2 POP POP JUMP JUMPDEST PUSH1 0x0 PUSH1 0x20 DUP3 ADD SWAP1 POP SWAP2 SWAP1 POP JUMP JUMPDEST PUSH1 0x0 PUSH3 0xCD7 DUP3 PUSH3 0xC66 JUMP JUMPDEST PUSH3 0xCE3 DUP2 DUP6 PUSH3 0xC71 JUMP JUMPDEST SWAP4 POP PUSH3 0xCF0 DUP4 PUSH3 0xC82 JUMP JUMPDEST DUP1 PUSH1 0x0 JUMPDEST DUP4 DUP2 LT ISZERO PUSH3 0xD27 JUMPI DUP2 MLOAD PUSH3 0xD0B DUP9 DUP3 PUSH3 0xCA3 JUMP JUMPDEST SWAP8 POP PUSH3 0xD18 DUP4 PUSH3 0xCBD JUMP JUMPDEST SWAP3 POP POP PUSH1 0x1 DUP2 ADD SWAP1 POP PUSH3 0xCF4 JUMP JUMPDEST POP DUP6 SWAP4 POP POP POP POP SWAP3 SWAP2 POP POP JUMP JUMPDEST PUSH1 0x0 PUSH1 0x20 DUP3 ADD SWAP1 POP DUP2 DUP2 SUB PUSH1 0x0 DUP4 ADD MSTORE PUSH3 0xD50 DUP2 DUP5 PUSH3 0xCCA JUMP JUMPDEST SWAP1 POP SWAP3 SWAP2 POP POP JUMP JUMPDEST PUSH1 0x0 DUP2 SWAP1 POP SWAP3 SWAP2 POP POP JUMP JUMPDEST POP JUMP JUMPDEST PUSH1 0x0 PUSH3 0xD75 PUSH1 0x0 DUP4 PUSH3 0xD58 JUMP JUMPDEST SWAP2 POP PUSH3 0xD82 DUP3 PUSH3 0xD63 JUMP JUMPDEST PUSH1 0x0 DUP3 ADD SWAP1 POP SWAP2 SWAP1 POP JUMP JUMPDEST PUSH1 0x0 PUSH3 0xD9A DUP3 PUSH3 0xD66 JUMP JUMPDEST SWAP2 POP DUP2 SWAP1 POP SWAP2 SWAP1 POP JUMP JUMPDEST PUSH1 0x0 DUP3 DUP3 MSTORE PUSH1 0x20 DUP3 ADD SWAP1 POP SWAP3 SWAP2 POP POP JUMP JUMPDEST PUSH32 0x496E76616C696420506C616E0000000000000000000000000000000000000000 PUSH1 0x0 DUP3 ADD MSTORE POP JUMP JUMPDEST PUSH1 0x0 PUSH3 0xDED PUSH1 0xC DUP4 PUSH3 0xDA4 JUMP JUMPDEST SWAP2 POP PUSH3 0xDFA DUP3 PUSH3 0xDB5 JUMP JUMPDEST PUSH1 0x20 DUP3 ADD SWAP1 POP SWAP2 SWAP1 POP JUMP JUMPDEST PUSH1 0x0 PUSH1 0x20 DUP3 ADD SWAP1 POP DUP2 DUP2 SUB PUSH1 0x0 DUP4 ADD MSTORE PUSH3 0xE20 DUP2 PUSH3 0xDDE JUMP JUMPDEST SWAP1 POP SWAP2 SWAP1 POP JUMP JUMPDEST PUSH32 0x4E487B7100000000000000000000000000000000000000000000000000000000 PUSH1 0x0 MSTORE PUSH1 0x11 PUSH1 0x4 MSTORE PUSH1 0x24 PUSH1 0x0 REVERT JUMPDEST PUSH1 0x0 PUSH3 0xE63 DUP3 PUSH3 0xA3A JUMP JUMPDEST SWAP2 POP PUSH3 0xE70 DUP4 PUSH3 0xA3A JUMP JUMPDEST SWAP3 POP DUP3 DUP3 MUL PUSH3 0xE80 DUP2 PUSH3 0xA3A JUMP JUMPDEST SWAP2 POP DUP3 DUP3 DIV DUP5 EQ DUP4 ISZERO OR PUSH3 0xE9A JUMPI PUSH3 0xE99 PUSH3 0xE27 JUMP JUMPDEST JUMPDEST POP SWAP3 SWAP2 POP POP JUMP JUMPDEST PUSH32 0x4E487B7100000000000000000000000000000000000000000000000000000000 PUSH1 0x0 MSTORE PUSH1 0x12 PUSH1 0x4 MSTORE PUSH1 0x24 PUSH1 0x0 REVERT JUMPDEST PUSH1 0x0 PUSH3 0xEDD DUP3 PUSH3 0xA3A JUMP JUMPDEST SWAP2 POP PUSH3 0xEEA DUP4 PUSH3 0xA3A JUMP JUMPDEST SWAP3 POP DUP3 PUSH3 0xEFD JUMPI PUSH3 0xEFC PUSH3 0xEA1 JUMP JUMPDEST JUMPDEST DUP3 DUP3 DIV SWAP1 POP SWAP3 SWAP2 POP POP JUMP JUMPDEST PUSH32 0x4E6F742073656E6420496E737572616E636520416D6F756E7400000000000000 PUSH1 0x0 DUP3 ADD MSTORE POP JUMP JUMPDEST PUSH1 0x0 PUSH3 0xF40 PUSH1 0x19 DUP4 PUSH3 0xDA4 JUMP JUMPDEST SWAP2 POP PUSH3 0xF4D DUP3 PUSH3 0xF08 JUMP JUMPDEST PUSH1 0x20 DUP3 ADD SWAP1 POP SWAP2 SWAP1 POP JUMP JUMPDEST PUSH1 0x0 PUSH1 0x20 DUP3 ADD SWAP1 POP DUP2 DUP2 SUB PUSH1 0x0 DUP4 ADD MSTORE PUSH3 0xF73 DUP2 PUSH3 0xF31 JUMP JUMPDEST SWAP1 POP SWAP2 SWAP1 POP JUMP JUMPDEST PUSH1 0x0 DUP2 SWAP1 POP SWAP2 SWAP1 POP JUMP JUMPDEST PUSH1 0x0 PUSH3 0xFA5 PUSH3 0xF9F PUSH3 0xF99 DUP5 PUSH3 0xAA7 JUMP JUMPDEST PUSH3 0xF7A JUMP JUMPDEST PUSH3 0xA3A JUMP JUMPDEST SWAP1 POP SWAP2 SWAP1 POP JUMP JUMPDEST PUSH3 0xFB7 DUP2 PUSH3 0xF84 JUMP JUMPDEST DUP3 MSTORE POP POP JUMP JUMPDEST PUSH3 0xFC8 DUP2 PUSH3 0xA3A JUMP JUMPDEST DUP3 MSTORE POP POP JUMP JUMPDEST PUSH1 0x0 PUSH1 0xC0 DUP3 ADD SWAP1 POP PUSH3 0xFE5 PUSH1 0x0 DUP4 ADD DUP10 PUSH3 0xFAC JUMP JUMPDEST PUSH3 0xFF4 PUSH1 0x20 DUP4 ADD DUP9 PUSH3 0xC38 JUMP JUMPDEST PUSH3 0x1003 PUSH1 0x40 DUP4 ADD DUP8 PUSH3 0xC38 JUMP JUMPDEST PUSH3 0x1012 PUSH1 0x60 DUP4 ADD DUP7 PUSH3 0xFBD JUMP JUMPDEST PUSH3 0x1021 PUSH1 0x80 DUP4 ADD DUP6 PUSH3 0xFBD JUMP JUMPDEST PUSH3 0x1030 PUSH1 0xA0 DUP4 ADD DUP5 PUSH3 0xC38 JUMP JUMPDEST SWAP8 SWAP7 POP POP POP POP POP POP POP JUMP JUMPDEST PUSH1 0x0 DUP2 MLOAD SWAP1 POP PUSH3 0x104C DUP2 PUSH3 0xA44 JUMP JUMPDEST SWAP3 SWAP2 POP POP JUMP JUMPDEST PUSH1 0x0 PUSH1 0x20 DUP3 DUP5 SUB SLT ISZERO PUSH3 0x106B JUMPI PUSH3 0x106A PUSH3 0xA35 JUMP JUMPDEST JUMPDEST PUSH1 0x0 PUSH3 0x107B DUP5 DUP3 DUP6 ADD PUSH3 0x103B JUMP JUMPDEST SWAP2 POP POP SWAP3 SWAP2 POP POP JUMP JUMPDEST PUSH32 0x436C61696D20416D6F756E742053686F756C64206E6F74206265203000000000 PUSH1 0x0 DUP3 ADD MSTORE POP JUMP JUMPDEST PUSH1 0x0 PUSH3 0x10BC PUSH1 0x1C DUP4 PUSH3 0xDA4 JUMP JUMPDEST SWAP2 POP PUSH3 0x10C9 DUP3 PUSH3 0x1084 JUMP JUMPDEST PUSH1 0x20 DUP3 ADD SWAP1 POP SWAP2 SWAP1 POP JUMP JUMPDEST PUSH1 0x0 PUSH1 0x20 DUP3 ADD SWAP1 POP DUP2 DUP2 SUB PUSH1 0x0 DUP4 ADD MSTORE PUSH3 0x10EF DUP2 PUSH3 0x10AD JUMP JUMPDEST SWAP1 POP SWAP2 SWAP1 POP JUMP JUMPDEST PUSH32 0x4E6F7420656E6F7567682046756E647320696E20436F6E747261637400000000 PUSH1 0x0 DUP3 ADD MSTORE POP JUMP JUMPDEST PUSH1 0x0 PUSH3 0x112E PUSH1 0x1C DUP4 PUSH3 0xDA4 JUMP JUMPDEST SWAP2 POP PUSH3 0x113B DUP3 PUSH3 0x10F6 JUMP JUMPDEST PUSH1 0x20 DUP3 ADD SWAP1 POP SWAP2 SWAP1 POP JUMP JUMPDEST PUSH1 0x0 PUSH1 0x20 DUP3 ADD SWAP1 POP DUP2 DUP2 SUB PUSH1 0x0 DUP4 ADD MSTORE PUSH3 0x1161 DUP2 PUSH3 0x111F JUMP JUMPDEST SWAP1 POP SWAP2 SWAP1 POP JUMP JUMPDEST PUSH32 0x5472616E73616374696F6E20776173206E6F7420737563636573737366756C00 PUSH1 0x0 DUP3 ADD MSTORE POP JUMP JUMPDEST PUSH1 0x0 PUSH3 0x11A0 PUSH1 0x1F DUP4 PUSH3 0xDA4 JUMP JUMPDEST SWAP2 POP PUSH3 0x11AD DUP3 PUSH3 0x1168 JUMP JUMPDEST PUSH1 0x20 DUP3 ADD SWAP1 POP SWAP2 SWAP1 POP JUMP JUMPDEST PUSH1 0x0 PUSH1 0x20 DUP3 ADD SWAP1 POP DUP2 DUP2 SUB PUSH1 0x0 DUP4 ADD MSTORE PUSH3 0x11D3 DUP2 PUSH3 0x1191 JUMP JUMPDEST SWAP1 POP SWAP2 SWAP1 POP JUMP INVALID PUSH2 0x140 PUSH1 0x40 MSTORE CALLVALUE DUP1 ISZERO PUSH3 0x12 JUMPI PUSH1 0x0 DUP1 REVERT JUMPDEST POP PUSH1 0x40 MLOAD PUSH3 0x1227 CODESIZE SUB DUP1 PUSH3 0x1227 DUP4 CODECOPY DUP2 DUP2 ADD PUSH1 0x40 MSTORE DUP2 ADD SWAP1 PUSH3 0x38 SWAP2 SWAP1 PUSH3 0x1BC JUMP JUMPDEST DUP6 PUSH1 0xC0 DUP2 DUP2 MSTORE POP POP DUP5 PUSH20 0xFFFFFFFFFFFFFFFFFFFFFFFFFFFFFFFFFFFFFFFF AND PUSH1 0xA0 DUP2 PUSH20 0xFFFFFFFFFFFFFFFFFFFFFFFFFFFFFFFFFFFFFFFF AND DUP2 MSTORE POP POP DUP4 PUSH20 0xFFFFFFFFFFFFFFFFFFFFFFFFFFFFFFFFFFFFFFFF AND PUSH1 0x80 DUP2 PUSH20 0xFFFFFFFFFFFFFFFFFFFFFFFFFFFFFFFFFFFFFFFF AND DUP2 MSTORE POP POP DUP3 PUSH1 0xE0 DUP2 DUP2 MSTORE POP POP PUSH3 0x28206F DUP3 PUSH3 0xC1 SWAP2 SWAP1 PUSH3 0x287 JUMP JUMPDEST TIMESTAMP PUSH3 0xCE SWAP2 SWAP1 PUSH3 0x2D2 JUMP JUMPDEST PUSH2 0x100 DUP2 DUP2 MSTORE POP POP DUP1 PUSH20 0xFFFFFFFFFFFFFFFFFFFFFFFFFFFFFFFFFFFFFFFF AND PUSH2 0x120 DUP2 PUSH20 0xFFFFFFFFFFFFFFFFFFFFFFFFFFFFFFFFFFFFFFFF AND DUP2 MSTORE POP POP POP POP POP POP POP POP PUSH3 0x30D JUMP JUMPDEST PUSH1 0x0 DUP1 REVERT JUMPDEST PUSH1 0x0 DUP2 SWAP1 POP SWAP2 SWAP1 POP JUMP JUMPDEST PUSH3 0x131 DUP2 PUSH3 0x11C JUMP JUMPDEST DUP2 EQ PUSH3 0x13D JUMPI PUSH1 0x0 DUP1 REVERT JUMPDEST POP JUMP JUMPDEST PUSH1 0x0 DUP2 MLOAD SWAP1 POP PUSH3 0x151 DUP2 PUSH3 0x126 JUMP JUMPDEST SWAP3 SWAP2 POP POP JUMP JUMPDEST PUSH1 0x0 PUSH20 0xFFFFFFFFFFFFFFFFFFFFFFFFFFFFFFFFFFFFFFFF DUP3 AND SWAP1 POP SWAP2 SWAP1 POP JUMP JUMPDEST PUSH1 0x0 PUSH3 0x184 DUP3 PUSH3 0x157 JUMP JUMPDEST SWAP1 POP SWAP2 SWAP1 POP JUMP JUMPDEST PUSH3 0x196 DUP2 PUSH3 0x177 JUMP JUMPDEST DUP2 EQ PUSH3 0x1A2 JUMPI PUSH1 0x0 DUP1 REVERT JUMPDEST POP JUMP JUMPDEST PUSH1 0x0 DUP2 MLOAD SWAP1 POP PUSH3 0x1B6 DUP2 PUSH3 0x18B JUMP JUMPDEST SWAP3 SWAP2 POP POP JUMP JUMPDEST PUSH1 0x0 DUP1 PUSH1 0x0 DUP1 PUSH1 0x0 DUP1 PUSH1 0xC0 DUP8 DUP10 SUB SLT ISZERO PUSH3 0x1DC JUMPI PUSH3 0x1DB PUSH3 0x117 JUMP JUMPDEST JUMPDEST PUSH1 0x0 PUSH3 0x1EC DUP10 DUP3 DUP11 ADD PUSH3 0x140 JUMP JUMPDEST SWAP7 POP POP PUSH1 0x20 PUSH3 0x1FF DUP10 DUP3 DUP11 ADD PUSH3 0x1A5 JUMP JUMPDEST SWAP6 POP POP PUSH1 0x40 PUSH3 0x212 DUP10 DUP3 DUP11 ADD PUSH3 0x1A5 JUMP JUMPDEST SWAP5 POP POP PUSH1 0x60 PUSH3 0x225 DUP10 DUP3 DUP11 ADD PUSH3 0x140 JUMP JUMPDEST SWAP4 POP POP PUSH1 0x80 PUSH3 0x238 DUP10 DUP3 DUP11 ADD PUSH3 0x140 JUMP JUMPDEST SWAP3 POP POP PUSH1 0xA0 PUSH3 0x24B DUP10 DUP3 DUP11 ADD PUSH3 0x1A5 JUMP JUMPDEST SWAP2 POP POP SWAP3 SWAP6 POP SWAP3 SWAP6 POP SWAP3 SWAP6 JUMP JUMPDEST PUSH32 0x4E487B7100000000000000000000000000000000000000000000000000000000 PUSH1 0x0 MSTORE PUSH1 0x11 PUSH1 0x4 MSTORE PUSH1 0x24 PUSH1 0x0 REVERT JUMPDEST PUSH1 0x0 PUSH3 0x294 DUP3 PUSH3 0x11C JUMP JUMPDEST SWAP2 POP PUSH3 0x2A1 DUP4 PUSH3 0x11C JUMP JUMPDEST SWAP3 POP DUP3 DUP3 MUL PUSH3 0x2B1 DUP2 PUSH3 0x11C JUMP JUMPDEST SWAP2 POP DUP3 DUP3 DIV DUP5 EQ DUP4 ISZERO OR PUSH3 0x2CB JUMPI PUSH3 0x2CA PUSH3 0x258 JUMP JUMPDEST JUMPDEST POP SWAP3 SWAP2 POP POP JUMP JUMPDEST PUSH1 0x0 PUSH3 0x2DF DUP3 PUSH3 0x11C JUMP JUMPDEST SWAP2 POP PUSH3 0x2EC DUP4 PUSH3 0x11C JUMP JUMPDEST SWAP3 POP DUP3 DUP3 ADD SWAP1 POP DUP1 DUP3 GT ISZERO PUSH3 0x307 JUMPI PUSH3 0x306 PUSH3 0x258 JUMP JUMPDEST JUMPDEST SWAP3 SWAP2 POP POP JUMP JUMPDEST PUSH1 0x80 MLOAD PUSH1 0xA0 MLOAD PUSH1 0xC0 MLOAD PUSH1 0xE0 MLOAD PUSH2 0x100 MLOAD PUSH2 0x120 MLOAD PUSH2 0xE7D PUSH3 0x3AA PUSH1 0x0 CODECOPY PUSH1 0x0 PUSH2 0x340 ADD MSTORE PUSH1 0x0 DUP2 DUP2 PUSH2 0x21C ADD MSTORE PUSH2 0x7C6 ADD MSTORE PUSH1 0x0 DUP2 DUP2 PUSH2 0x4B4 ADD MSTORE DUP2 DUP2 PUSH2 0x72C ADD MSTORE DUP2 DUP2 PUSH2 0x879 ADD MSTORE PUSH2 0x8CB ADD MSTORE PUSH1 0x0 DUP2 DUP2 PUSH2 0x490 ADD MSTORE PUSH2 0x8AA ADD MSTORE PUSH1 0x0 DUP2 DUP2 PUSH2 0x67A ADD MSTORE DUP2 DUP2 PUSH2 0x74D ADD MSTORE PUSH2 0x841 ADD MSTORE PUSH1 0x0 DUP2 DUP2 PUSH2 0x240 ADD MSTORE DUP2 DUP2 PUSH2 0x4E8 ADD MSTORE DUP2 DUP2 PUSH2 0x50C ADD MSTORE DUP2 DUP2 PUSH2 0x59C ADD MSTORE PUSH2 0x69E ADD MSTORE PUSH2 0xE7D PUSH1 0x0 RETURN INVALID PUSH1 0x80 PUSH1 0x40 MSTORE PUSH1 0x4 CALLDATASIZE LT PUSH2 0x95 JUMPI PUSH1 0x0 CALLDATALOAD PUSH1 0xE0 SHR DUP1 PUSH4 0x830953AB GT PUSH2 0x59 JUMPI DUP1 PUSH4 0x830953AB EQ PUSH2 0x164 JUMPI DUP1 PUSH4 0x8DA5CB5B EQ PUSH2 0x18F JUMPI DUP1 PUSH4 0xE777468B EQ PUSH2 0x1BA JUMPI DUP1 PUSH4 0xE834A834 EQ PUSH2 0x1C4 JUMPI DUP1 PUSH4 0xF6B4DFB4 EQ PUSH2 0x1EF JUMPI PUSH2 0x9C JUMP JUMPDEST DUP1 PUSH4 0x3E98D1FB EQ PUSH2 0xA1 JUMPI DUP1 PUSH4 0x4E71D92D EQ PUSH2 0xCC JUMPI DUP1 PUSH4 0x53E06571 EQ PUSH2 0xE3 JUMPI DUP1 PUSH4 0x563FA5FE EQ PUSH2 0x10E JUMPI DUP1 PUSH4 0x71127ED2 EQ PUSH2 0x139 JUMPI PUSH2 0x9C JUMP JUMPDEST CALLDATASIZE PUSH2 0x9C JUMPI STOP JUMPDEST PUSH1 0x0 DUP1 REVERT JUMPDEST CALLVALUE DUP1 ISZERO PUSH2 0xAD JUMPI PUSH1 0x0 DUP1 REVERT JUMPDEST POP PUSH2 0xB6 PUSH2 0x21A JUMP JUMPDEST PUSH1 0x40 MLOAD PUSH2 0xC3 SWAP2 SWAP1 PUSH2 0x939 JUMP JUMPDEST PUSH1 0x40 MLOAD DUP1 SWAP2 SUB SWAP1 RETURN JUMPDEST CALLVALUE DUP1 ISZERO PUSH2 0xD8 JUMPI PUSH1 0x0 DUP1 REVERT JUMPDEST POP PUSH2 0xE1 PUSH2 0x23E JUMP JUMPDEST STOP JUMPDEST CALLVALUE DUP1 ISZERO PUSH2 0xEF JUMPI PUSH1 0x0 DUP1 REVERT JUMPDEST POP PUSH2 0xF8 PUSH2 0x48E JUMP JUMPDEST PUSH1 0x40 MLOAD PUSH2 0x105 SWAP2 SWAP1 PUSH2 0x939 JUMP JUMPDEST PUSH1 0x40 MLOAD DUP1 SWAP2 SUB SWAP1 RETURN JUMPDEST CALLVALUE DUP1 ISZERO PUSH2 0x11A JUMPI PUSH1 0x0 DUP1 REVERT JUMPDEST POP PUSH2 0x123 PUSH2 0x4B2 JUMP JUMPDEST PUSH1 0x40 MLOAD PUSH2 0x130 SWAP2 SWAP1 PUSH2 0x939 JUMP JUMPDEST PUSH1 0x40 MLOAD DUP1 SWAP2 SUB SWAP1 RETURN JUMPDEST CALLVALUE DUP1 ISZERO PUSH2 0x145 JUMPI PUSH1 0x0 DUP1 REVERT JUMPDEST POP PUSH2 0x14E PUSH2 0x4D6 JUMP JUMPDEST PUSH1 0x40 MLOAD PUSH2 0x15B SWAP2 SWAP1 PUSH2 0x939 JUMP JUMPDEST PUSH1 0x40 MLOAD DUP1 SWAP2 SUB SWAP1 RETURN JUMPDEST CALLVALUE DUP1 ISZERO PUSH2 0x170 JUMPI PUSH1 0x0 DUP1 REVERT JUMPDEST POP PUSH2 0x179 PUSH2 0x4E0 JUMP JUMPDEST PUSH1 0x40 MLOAD PUSH2 0x186 SWAP2 SWAP1 PUSH2 0x939 JUMP JUMPDEST PUSH1 0x40 MLOAD DUP1 SWAP2 SUB SWAP1 RETURN JUMPDEST CALLVALUE DUP1 ISZERO PUSH2 0x19B JUMPI PUSH1 0x0 DUP1 REVERT JUMPDEST POP PUSH2 0x1A4 PUSH2 0x4E6 JUMP JUMPDEST PUSH1 0x40 MLOAD PUSH2 0x1B1 SWAP2 SWAP1 PUSH2 0x995 JUMP JUMPDEST PUSH1 0x40 MLOAD DUP1 SWAP2 SUB SWAP1 RETURN JUMPDEST PUSH2 0x1C2 PUSH2 0x50A JUMP JUMPDEST STOP JUMPDEST CALLVALUE DUP1 ISZERO PUSH2 0x1D0 JUMPI PUSH1 0x0 DUP1 REVERT JUMPDEST POP PUSH2 0x1D9 PUSH2 0x667 JUMP JUMPDEST PUSH1 0x40 MLOAD PUSH2 0x1E6 SWAP2 SWAP1 PUSH2 0x9CB JUMP JUMPDEST PUSH1 0x40 MLOAD DUP1 SWAP2 SUB SWAP1 RETURN JUMPDEST CALLVALUE DUP1 ISZERO PUSH2 0x1FB JUMPI PUSH1 0x0 DUP1 REVERT JUMPDEST POP PUSH2 0x204 PUSH2 0x678 JUMP JUMPDEST PUSH1 0x40 MLOAD PUSH2 0x211 SWAP2 SWAP1 PUSH2 0x995 JUMP JUMPDEST PUSH1 0x40 MLOAD DUP1 SWAP2 SUB SWAP1 RETURN JUMPDEST PUSH32 0x0 DUP2 JUMP JUMPDEST PUSH32 0x0 PUSH20 0xFFFFFFFFFFFFFFFFFFFFFFFFFFFFFFFFFFFFFFFF AND CALLER PUSH20 0xFFFFFFFFFFFFFFFFFFFFFFFFFFFFFFFFFFFFFFFF AND EQ PUSH2 0x2CC JUMPI PUSH1 0x40 MLOAD PUSH32 0x8C379A000000000000000000000000000000000000000000000000000000000 DUP2 MSTORE PUSH1 0x4 ADD PUSH2 0x2C3 SWAP1 PUSH2 0xA43 JUMP JUMPDEST PUSH1 0x40 MLOAD DUP1 SWAP2 SUB SWAP1 REVERT JUMPDEST PUSH1 0x0 DUP1 SLOAD SWAP1 PUSH2 0x100 EXP SWAP1 DIV PUSH1 0xFF AND ISZERO PUSH2 0x31A JUMPI PUSH1 0x40 MLOAD PUSH32 0x8C379A000000000000000000000000000000000000000000000000000000000 DUP2 MSTORE PUSH1 0x4 ADD PUSH2 0x311 SWAP1 PUSH2 0xAAF JUMP JUMPDEST PUSH1 0x40 MLOAD DUP1 SWAP2 SUB SWAP1 REVERT JUMPDEST PUSH2 0x322 PUSH2 0x69C JUMP JUMPDEST PUSH1 0x1 PUSH1 0x0 DUP1 PUSH2 0x100 EXP DUP2 SLOAD DUP2 PUSH1 0xFF MUL NOT AND SWAP1 DUP4 ISZERO ISZERO MUL OR SWAP1 SSTORE POP PUSH1 0x0 PUSH32 0x0 PUSH20 0xFFFFFFFFFFFFFFFFFFFFFFFFFFFFFFFFFFFFFFFF AND PUSH1 0x40 MLOAD PUSH1 0x24 ADD PUSH1 0x40 MLOAD PUSH1 0x20 DUP2 DUP4 SUB SUB DUP2 MSTORE SWAP1 PUSH1 0x40 MSTORE PUSH32 0xA75AC60800000000000000000000000000000000000000000000000000000000 PUSH28 0xFFFFFFFFFFFFFFFFFFFFFFFFFFFFFFFFFFFFFFFFFFFFFFFFFFFFFFFF NOT AND PUSH1 0x20 DUP3 ADD DUP1 MLOAD PUSH28 0xFFFFFFFFFFFFFFFFFFFFFFFFFFFFFFFFFFFFFFFFFFFFFFFFFFFFFFFF DUP4 DUP2 DUP4 AND OR DUP4 MSTORE POP POP POP POP PUSH1 0x40 MLOAD PUSH2 0x405 SWAP2 SWAP1 PUSH2 0xB40 JUMP JUMPDEST PUSH1 0x0 PUSH1 0x40 MLOAD DUP1 DUP4 SUB DUP2 PUSH1 0x0 DUP7 GAS CALL SWAP2 POP POP RETURNDATASIZE DUP1 PUSH1 0x0 DUP2 EQ PUSH2 0x442 JUMPI PUSH1 0x40 MLOAD SWAP2 POP PUSH1 0x1F NOT PUSH1 0x3F RETURNDATASIZE ADD AND DUP3 ADD PUSH1 0x40 MSTORE RETURNDATASIZE DUP3 MSTORE RETURNDATASIZE PUSH1 0x0 PUSH1 0x20 DUP5 ADD RETURNDATACOPY PUSH2 0x447 JUMP JUMPDEST PUSH1 0x60 SWAP2 POP JUMPDEST POP POP SWAP1 POP DUP1 PUSH2 0x48B JUMPI PUSH1 0x40 MLOAD PUSH32 0x8C379A000000000000000000000000000000000000000000000000000000000 DUP2 MSTORE PUSH1 0x4 ADD PUSH2 0x482 SWAP1 PUSH2 0xBA3 JUMP JUMPDEST PUSH1 0x40 MLOAD DUP1 SWAP2 SUB SWAP1 REVERT JUMPDEST POP JUMP JUMPDEST PUSH32 0x0 DUP2 JUMP JUMPDEST PUSH32 0x0 DUP2 JUMP JUMPDEST PUSH1 0x0 PUSH1 0x1 SLOAD SWAP1 POP SWAP1 JUMP JUMPDEST PUSH1 0x1 SLOAD DUP2 JUMP JUMPDEST PUSH32 0x0 DUP2 JUMP JUMPDEST PUSH32 0x0 PUSH20 0xFFFFFFFFFFFFFFFFFFFFFFFFFFFFFFFFFFFFFFFF AND CALLER PUSH20 0xFFFFFFFFFFFFFFFFFFFFFFFFFFFFFFFFFFFFFFFF AND EQ PUSH2 0x598 JUMPI PUSH1 0x40 MLOAD PUSH32 0x8C379A000000000000000000000000000000000000000000000000000000000 DUP2 MSTORE PUSH1 0x4 ADD PUSH2 0x58F SWAP1 PUSH2 0xA43 JUMP JUMPDEST PUSH1 0x40 MLOAD DUP1 SWAP2 SUB SWAP1 REVERT JUMPDEST PUSH1 0x0 PUSH32 0x0 PUSH20 0xFFFFFFFFFFFFFFFFFFFFFFFFFFFFFFFFFFFFFFFF AND SELFBALANCE PUSH1 0x40 MLOAD PUSH2 0x5DE SWAP1 PUSH2 0xBE9 JUMP JUMPDEST PUSH1 0x0 PUSH1 0x40 MLOAD DUP1 DUP4 SUB DUP2 DUP6 DUP8 GAS CALL SWAP3 POP POP POP RETURNDATASIZE DUP1 PUSH1 0x0 DUP2 EQ PUSH2 0x61B JUMPI PUSH1 0x40 MLOAD SWAP2 POP PUSH1 0x1F NOT PUSH1 0x3F RETURNDATASIZE ADD AND DUP3 ADD PUSH1 0x40 MSTORE RETURNDATASIZE DUP3 MSTORE RETURNDATASIZE PUSH1 0x0 PUSH1 0x20 DUP5 ADD RETURNDATACOPY PUSH2 0x620 JUMP JUMPDEST PUSH1 0x60 SWAP2 POP JUMPDEST POP POP SWAP1 POP DUP1 PUSH2 0x664 JUMPI PUSH1 0x40 MLOAD PUSH32 0x8C379A000000000000000000000000000000000000000000000000000000000 DUP2 MSTORE PUSH1 0x4 ADD PUSH2 0x65B SWAP1 PUSH2 0xC4A JUMP JUMPDEST PUSH1 0x40 MLOAD DUP1 SWAP2 SUB SWAP1 REVERT JUMPDEST POP JUMP JUMPDEST PUSH1 0x0 DUP1 SLOAD SWAP1 PUSH2 0x100 EXP SWAP1 DIV PUSH1 0xFF AND DUP2 JUMP JUMPDEST PUSH32 0x0 DUP2 JUMP JUMPDEST PUSH32 0x0 PUSH20 0xFFFFFFFFFFFFFFFFFFFFFFFFFFFFFFFFFFFFFFFF AND CALLER PUSH20 0xFFFFFFFFFFFFFFFFFFFFFFFFFFFFFFFFFFFFFFFF AND EQ PUSH2 0x72A JUMPI PUSH1 0x40 MLOAD PUSH32 0x8C379A000000000000000000000000000000000000000000000000000000000 DUP2 MSTORE PUSH1 0x4 ADD PUSH2 0x721 SWAP1 PUSH2 0xA43 JUMP JUMPDEST PUSH1 0x40 MLOAD DUP1 SWAP2 SUB SWAP1 REVERT JUMPDEST PUSH32 0x0 PUSH32 0x0 PUSH20 0xFFFFFFFFFFFFFFFFFFFFFFFFFFFFFFFFFFFFFFFF AND BALANCE LT PUSH2 0x7C3 JUMPI PUSH1 0x40 MLOAD PUSH32 0x8C379A000000000000000000000000000000000000000000000000000000000 DUP2 MSTORE PUSH1 0x4 ADD PUSH2 0x7BA SWAP1 PUSH2 0xCB6 JUMP JUMPDEST PUSH1 0x40 MLOAD DUP1 SWAP2 SUB SWAP1 REVERT JUMPDEST TIMESTAMP PUSH32 0x0 GT PUSH2 0x825 JUMPI PUSH1 0x40 MLOAD PUSH32 0x8C379A000000000000000000000000000000000000000000000000000000000 DUP2 MSTORE PUSH1 0x4 ADD PUSH2 0x81C SWAP1 PUSH2 0xD22 JUMP JUMPDEST PUSH1 0x40 MLOAD DUP1 SWAP2 SUB SWAP1 REVERT JUMPDEST PUSH1 0x0 DUP1 SLOAD SWAP1 PUSH2 0x100 EXP SWAP1 DIV PUSH1 0xFF AND ISZERO PUSH2 0x83D JUMPI PUSH1 0x0 DUP1 REVERT JUMPDEST PUSH1 0x0 PUSH32 0x0 PUSH20 0xFFFFFFFFFFFFFFFFFFFFFFFFFFFFFFFFFFFFFFFF AND BALANCE PUSH32 0x0 PUSH2 0x8A2 SWAP2 SWAP1 PUSH2 0xD71 JUMP JUMPDEST SWAP1 POP PUSH1 0x0 PUSH1 0xA PUSH32 0x0 PUSH32 0x0 PUSH2 0x8F4 SWAP2 SWAP1 PUSH2 0xDA5 JUMP JUMPDEST PUSH2 0x8FE SWAP2 SWAP1 PUSH2 0xE16 JUMP JUMPDEST SWAP1 POP DUP1 DUP3 LT ISZERO PUSH2 0x914 JUMPI DUP2 PUSH1 0x1 DUP2 SWAP1 SSTORE POP PUSH2 0x91C JUMP JUMPDEST DUP1 PUSH1 0x1 DUP2 SWAP1 SSTORE POP JUMPDEST POP POP JUMP JUMPDEST PUSH1 0x0 DUP2 SWAP1 POP SWAP2 SWAP1 POP JUMP JUMPDEST PUSH2 0x933 DUP2 PUSH2 0x920 JUMP JUMPDEST DUP3 MSTORE POP POP JUMP JUMPDEST PUSH1 0x0 PUSH1 0x20 DUP3 ADD SWAP1 POP PUSH2 0x94E PUSH1 0x0 DUP4 ADD DUP5 PUSH2 0x92A JUMP JUMPDEST SWAP3 SWAP2 POP POP JUMP JUMPDEST PUSH1 0x0 PUSH20 0xFFFFFFFFFFFFFFFFFFFFFFFFFFFFFFFFFFFFFFFF DUP3 AND SWAP1 POP SWAP2 SWAP1 POP JUMP JUMPDEST PUSH1 0x0 PUSH2 0x97F DUP3 PUSH2 0x954 JUMP JUMPDEST SWAP1 POP SWAP2 SWAP1 POP JUMP JUMPDEST PUSH2 0x98F DUP2 PUSH2 0x974 JUMP JUMPDEST DUP3 MSTORE POP POP JUMP JUMPDEST PUSH1 0x0 PUSH1 0x20 DUP3 ADD SWAP1 POP PUSH2 0x9AA PUSH1 0x0 DUP4 ADD DUP5 PUSH2 0x986 JUMP JUMPDEST SWAP3 SWAP2 POP POP JUMP JUMPDEST PUSH1 0x0 DUP2 ISZERO ISZERO SWAP1 POP SWAP2 SWAP1 POP JUMP JUMPDEST PUSH2 0x9C5 DUP2 PUSH2 0x9B0 JUMP JUMPDEST DUP3 MSTORE POP POP JUMP JUMPDEST PUSH1 0x0 PUSH1 0x20 DUP3 ADD SWAP1 POP PUSH2 0x9E0 PUSH1 0x0 DUP4 ADD DUP5 PUSH2 0x9BC JUMP JUMPDEST SWAP3 SWAP2 POP POP JUMP JUMPDEST PUSH1 0x0 DUP3 DUP3 MSTORE PUSH1 0x20 DUP3 ADD SWAP1 POP SWAP3 SWAP2 POP POP JUMP JUMPDEST PUSH32 0x4F6E6C79204F776E657200000000000000000000000000000000000000000000 PUSH1 0x0 DUP3 ADD MSTORE POP JUMP JUMPDEST PUSH1 0x0 PUSH2 0xA2D PUSH1 0xA DUP4 PUSH2 0x9E6 JUMP JUMPDEST SWAP2 POP PUSH2 0xA38 DUP3 PUSH2 0x9F7 JUMP JUMPDEST PUSH1 0x20 DUP3 ADD SWAP1 POP SWAP2 SWAP1 POP JUMP JUMPDEST PUSH1 0x0 PUSH1 0x20 DUP3 ADD SWAP1 POP DUP2 DUP2 SUB PUSH1 0x0 DUP4 ADD MSTORE PUSH2 0xA5C DUP2 PUSH2 0xA20 JUMP JUMPDEST SWAP1 POP SWAP2 SWAP1 POP JUMP JUMPDEST PUSH32 0x416C726561647920436C61696D65642052657761726400000000000000000000 PUSH1 0x0 DUP3 ADD MSTORE POP JUMP JUMPDEST PUSH1 0x0 PUSH2 0xA99 PUSH1 0x16 DUP4 PUSH2 0x9E6 JUMP JUMPDEST SWAP2 POP PUSH2 0xAA4 DUP3 PUSH2 0xA63 JUMP JUMPDEST PUSH1 0x20 DUP3 ADD SWAP1 POP SWAP2 SWAP1 POP JUMP JUMPDEST PUSH1 0x0 PUSH1 0x20 DUP3 ADD SWAP1 POP DUP2 DUP2 SUB PUSH1 0x0 DUP4 ADD MSTORE PUSH2 0xAC8 DUP2 PUSH2 0xA8C JUMP JUMPDEST SWAP1 POP SWAP2 SWAP1 POP JUMP JUMPDEST PUSH1 0x0 DUP2 MLOAD SWAP1 POP SWAP2 SWAP1 POP JUMP JUMPDEST PUSH1 0x0 DUP2 SWAP1 POP SWAP3 SWAP2 POP POP JUMP JUMPDEST PUSH1 0x0 JUMPDEST DUP4 DUP2 LT ISZERO PUSH2 0xB03 JUMPI DUP1 DUP3 ADD MLOAD DUP2 DUP5 ADD MSTORE PUSH1 0x20 DUP2 ADD SWAP1 POP PUSH2 0xAE8 JUMP JUMPDEST PUSH1 0x0 DUP5 DUP5 ADD MSTORE POP POP POP POP JUMP JUMPDEST PUSH1 0x0 PUSH2 0xB1A DUP3 PUSH2 0xACF JUMP JUMPDEST PUSH2 0xB24 DUP2 DUP6 PUSH2 0xADA JUMP JUMPDEST SWAP4 POP PUSH2 0xB34 DUP2 DUP6 PUSH1 0x20 DUP7 ADD PUSH2 0xAE5 JUMP JUMPDEST DUP1 DUP5 ADD SWAP2 POP POP SWAP3 SWAP2 POP POP JUMP JUMPDEST PUSH1 0x0 PUSH2 0xB4C DUP3 DUP5 PUSH2 0xB0F JUMP JUMPDEST SWAP2 POP DUP2 SWAP1 POP SWAP3 SWAP2 POP POP JUMP JUMPDEST PUSH32 0x5472616E73616374696F6E204661696C656420696E20636C61696D0000000000 PUSH1 0x0 DUP3 ADD MSTORE POP JUMP JUMPDEST PUSH1 0x0 PUSH2 0xB8D PUSH1 0x1B DUP4 PUSH2 0x9E6 JUMP JUMPDEST SWAP2 POP PUSH2 0xB98 DUP3 PUSH2 0xB57 JUMP JUMPDEST PUSH1 0x20 DUP3 ADD SWAP1 POP SWAP2 SWAP1 POP JUMP JUMPDEST PUSH1 0x0 PUSH1 0x20 DUP3 ADD SWAP1 POP DUP2 DUP2 SUB PUSH1 0x0 DUP4 ADD MSTORE PUSH2 0xBBC DUP2 PUSH2 0xB80 JUMP JUMPDEST SWAP1 POP SWAP2 SWAP1 POP JUMP JUMPDEST POP JUMP JUMPDEST PUSH1 0x0 PUSH2 0xBD3 PUSH1 0x0 DUP4 PUSH2 0xADA JUMP JUMPDEST SWAP2 POP PUSH2 0xBDE DUP3 PUSH2 0xBC3 JUMP JUMPDEST PUSH1 0x0 DUP3 ADD SWAP1 POP SWAP2 SWAP1 POP JUMP JUMPDEST PUSH1 0x0 PUSH2 0xBF4 DUP3 PUSH2 0xBC6 JUMP JUMPDEST SWAP2 POP DUP2 SWAP1 POP SWAP2 SWAP1 POP JUMP JUMPDEST PUSH32 0x4661696C6564205472616E73616374696F6E0000000000000000000000000000 PUSH1 0x0 DUP3 ADD MSTORE POP JUMP JUMPDEST PUSH1 0x0 PUSH2 0xC34 PUSH1 0x12 DUP4 PUSH2 0x9E6 JUMP JUMPDEST SWAP2 POP PUSH2 0xC3F DUP3 PUSH2 0xBFE JUMP JUMPDEST PUSH1 0x20 DUP3 ADD SWAP1 POP SWAP2 SWAP1 POP JUMP JUMPDEST PUSH1 0x0 PUSH1 0x20 DUP3 ADD SWAP1 POP DUP2 DUP2 SUB PUSH1 0x0 DUP4 ADD MSTORE PUSH2 0xC63 DUP2 PUSH2 0xC27 JUMP JUMPDEST SWAP1 POP SWAP2 SWAP1 POP JUMP JUMPDEST PUSH32 0x5468657265206973206E6F206368616E676520696E2042616C616E6365000000 PUSH1 0x0 DUP3 ADD MSTORE POP JUMP JUMPDEST PUSH1 0x0 PUSH2 0xCA0 PUSH1 0x1D DUP4 PUSH2 0x9E6 JUMP JUMPDEST SWAP2 POP PUSH2 0xCAB DUP3 PUSH2 0xC6A JUMP JUMPDEST PUSH1 0x20 DUP3 ADD SWAP1 POP SWAP2 SWAP1 POP JUMP JUMPDEST PUSH1 0x0 PUSH1 0x20 DUP3 ADD SWAP1 POP DUP2 DUP2 SUB PUSH1 0x0 DUP4 ADD MSTORE PUSH2 0xCCF DUP2 PUSH2 0xC93 JUMP JUMPDEST SWAP1 POP SWAP2 SWAP1 POP JUMP JUMPDEST PUSH32 0x4F6F707320796F757220496E737572616E636520457870697265640000000000 PUSH1 0x0 DUP3 ADD MSTORE POP JUMP JUMPDEST PUSH1 0x0 PUSH2 0xD0C PUSH1 0x1B DUP4 PUSH2 0x9E6 JUMP JUMPDEST SWAP2 POP PUSH2 0xD17 DUP3 PUSH2 0xCD6 JUMP JUMPDEST PUSH1 0x20 DUP3 ADD SWAP1 POP SWAP2 SWAP1 POP JUMP JUMPDEST PUSH1 0x0 PUSH1 0x20 DUP3 ADD SWAP1 POP DUP2 DUP2 SUB PUSH1 0x0 DUP4 ADD MSTORE PUSH2 0xD3B DUP2 PUSH2 0xCFF JUMP JUMPDEST SWAP1 POP SWAP2 SWAP1 POP JUMP JUMPDEST PUSH32 0x4E487B7100000000000000000000000000000000000000000000000000000000 PUSH1 0x0 MSTORE PUSH1 0x11 PUSH1 0x4 MSTORE PUSH1 0x24 PUSH1 0x0 REVERT JUMPDEST PUSH1 0x0 PUSH2 0xD7C DUP3 PUSH2 0x920 JUMP JUMPDEST SWAP2 POP PUSH2 0xD87 DUP4 PUSH2 0x920 JUMP JUMPDEST SWAP3 POP DUP3 DUP3 SUB SWAP1 POP DUP2 DUP2 GT ISZERO PUSH2 0xD9F JUMPI PUSH2 0xD9E PUSH2 0xD42 JUMP JUMPDEST JUMPDEST SWAP3 SWAP2 POP POP JUMP JUMPDEST PUSH1 0x0 PUSH2 0xDB0 DUP3 PUSH2 0x920 JUMP JUMPDEST SWAP2 POP PUSH2 0xDBB DUP4 PUSH2 0x920 JUMP JUMPDEST SWAP3 POP DUP3 DUP3 MUL PUSH2 0xDC9 DUP2 PUSH2 0x920 JUMP JUMPDEST SWAP2 POP DUP3 DUP3 DIV DUP5 EQ DUP4 ISZERO OR PUSH2 0xDE0 JUMPI PUSH2 0xDDF PUSH2 0xD42 JUMP JUMPDEST JUMPDEST POP SWAP3 SWAP2 POP POP JUMP JUMPDEST PUSH32 0x4E487B7100000000000000000000000000000000000000000000000000000000 PUSH1 0x0 MSTORE PUSH1 0x12 PUSH1 0x4 MSTORE PUSH1 0x24 PUSH1 0x0 REVERT JUMPDEST PUSH1 0x0 PUSH2 0xE21 DUP3 PUSH2 0x920 JUMP JUMPDEST SWAP2 POP PUSH2 0xE2C DUP4 PUSH2 0x920 JUMP JUMPDEST SWAP3 POP DUP3 PUSH2 0xE3C JUMPI PUSH2 0xE3B PUSH2 0xDE7 JUMP JUMPDEST JUMPDEST DUP3 DUP3 DIV SWAP1 POP SWAP3 SWAP2 POP POP JUMP INVALID LOG2 PUSH5 0x6970667358 0x22 SLT KECCAK256 0xE9 MSTORE8 BYTE PUSH32 0x936161B5FC2BDED55A7BD9B163629FEAFDE8B5BDF1A1DB2B10BE244064736F6C PUSH4 0x43000812 STOP CALLER LOG2 PUSH5 0x6970667358 0x22 SLT KECCAK256 PUSH1 0xCF INVALID 0xF9 0xF6 DUP5 0xD2 SWAP14 0xB1 POP XOR 0xE4 0x4B 0x49 SDIV CALLER SWAP14 SWAP7 EXP 0xAE 0x28 CALLDATALOAD CALLDATACOPY 0xC5 EQ 0xE1 0x22 SIGNEXTEND 0xC9 0xEC BYTE DUP9 PUSH5 0x736F6C6343 STOP ADDMOD SLT STOP CALLER "},"methodIdentifiers":{"claimInsurance()":"a75ac608","contractToCustomer(address)":"af9b82d9","customerToContract(address)":"95c1d18c","getCustomerToContract(address)":"e2978f3a","getCustomers()":"f1ba7127","getInsurance(uint8,address,uint256)":"6353b818","plans(uint8)":"60a31a88","withdraw(uint256)":"2e1a7d4d"}}}}}