{
  "_format": "hh-sol-artifact-1",
  "contractName": "Storage",
  "sourceName": "contracts/Storage.sol",
  "abi": [
    {
      "inputs": [],
      "stateMutability": "nonpayable",
      "type": "constructor"
    },
    {
      "inputs": [],
      "name": "retrieve",
      "outputs": [
        {
          "internalType": "uint256",
          "name": "",
          "type": "uint256"
        }
      ],
      "stateMutability": "view",
      "type": "function"
    },
    {
      "inputs": [],
      "name": "store",
      "outputs": [],
      "stateMutability": "payable",
      "type": "function"
    },
    {
      "inputs": [
        {
          "internalType": "uint256",
          "name": "amount",
          "type": "uint256"
        }
      ],
      "name": "withdraw",
      "outputs": [],
      "stateMutability": "payable",
      "type": "function"
    }
  ],
  "bytecode": "0x60a060405234801561001057600080fd5b503373ffffffffffffffffffffffffffffffffffffffff1660808173ffffffffffffffffffffffffffffffffffffffff16815250506080516102f061005f6000396000608c01526102f06000f3fe6080604052600436106100345760003560e01c80632e1a7d4d146100395780632e64cec114610055578063975057e714610080575b600080fd5b610053600480360381019061004e91906101ba565b61008a565b005b34801561006157600080fd5b5061006a61015c565b60405161007791906101f6565b60405180910390f35b610088610165565b005b7f000000000000000000000000000000000000000000000000000000000000000073ffffffffffffffffffffffffffffffffffffffff163373ffffffffffffffffffffffffffffffffffffffff16146100e257600080fd5b60003373ffffffffffffffffffffffffffffffffffffffff168260405161010890610242565b60006040518083038185875af1925050503d8060008114610145576040519150601f19603f3d011682016040523d82523d6000602084013e61014a565b606091505b505090508061015857600080fd5b5050565b60008054905090565b346000808282546101769190610286565b92505081905550565b600080fd5b6000819050919050565b61019781610184565b81146101a257600080fd5b50565b6000813590506101b48161018e565b92915050565b6000602082840312156101d0576101cf61017f565b5b60006101de848285016101a5565b91505092915050565b6101f081610184565b82525050565b600060208201905061020b60008301846101e7565b92915050565b600081905092915050565b50565b600061022c600083610211565b91506102378261021c565b600082019050919050565b600061024d8261021f565b9150819050919050565b7f4e487b7100000000000000000000000000000000000000000000000000000000600052601160045260246000fd5b600061029182610184565b915061029c83610184565b92508282019050808211156102b4576102b3610257565b5b9291505056fea2646970667358221220c2754a55cf6cf83dca5da27155223fb348405ec92c8cbe324d525ec31388e58664736f6c63430008120033",
  "linkReferences": {},
  "deployedLinkReferences": {}
}