{
  "_format": "hh-sol-artifact-1",
  "contractName": "CryptoWalletInsuranceFactory",
  "sourceName": "contracts/ContractInsurance.sol",
  "abi": [
    {
      "inputs": [],
      "stateMutability": "payable",
      "type": "constructor"
    },
    {
      "inputs": [],
      "name": "claimInsurance",
      "outputs": [],
      "stateMutability": "payable",
      "type": "function"
    },
    {
      "inputs": [
        {
          "internalType": "address",
          "name": "",
          "type": "address"
        }
      ],
      "name": "contractToCustomer",
      "outputs": [
        {
          "internalType": "address",
          "name": "",
          "type": "address"
        }
      ],
      "stateMutability": "view",
      "type": "function"
    },
    {
      "inputs": [
        {
          "internalType": "address",
          "name": "",
          "type": "address"
        }
      ],
      "name": "customerToContract",
      "outputs": [
        {
          "internalType": "address",
          "name": "",
          "type": "address"
        }
      ],
      "stateMutability": "view",
      "type": "function"
    },
    {
      "inputs": [
        {
          "internalType": "address",
          "name": "customerAddress",
          "type": "address"
        }
      ],
      "name": "getCustomerToContract",
      "outputs": [
        {
          "internalType": "address",
          "name": "",
          "type": "address"
        }
      ],
      "stateMutability": "view",
      "type": "function"
    },
    {
      "inputs": [],
      "name": "getCustomers",
      "outputs": [
        {
          "internalType": "address[]",
          "name": "",
          "type": "address[]"
        }
      ],
      "stateMutability": "view",
      "type": "function"
    },
    {
      "inputs": [
        {
          "internalType": "uint8",
          "name": "plan",
          "type": "uint8"
        },
        {
          "internalType": "address",
          "name": "contractAddress",
          "type": "address"
        },
        {
          "internalType": "uint256",
          "name": "timePeriod",
          "type": "uint256"
        }
      ],
      "name": "getInsurance",
      "outputs": [],
      "stateMutability": "payable",
      "type": "function"
    },
    {
      "inputs": [
        {
          "internalType": "uint8",
          "name": "",
          "type": "uint8"
        }
      ],
      "name": "plans",
      "outputs": [
        {
          "internalType": "uint8",
          "name": "",
          "type": "uint8"
        }
      ],
      "stateMutability": "view",
      "type": "function"
    },
    {
      "inputs": [
        {
          "internalType": "uint256",
          "name": "amount",
          "type": "uint256"
        }
      ],
      "name": "withdraw",
      "outputs": [],
      "stateMutability": "payable",
      "type": "function"
    },
    {
      "stateMutability": "payable",
      "type": "receive"
    }
  ],
  "bytecode": "0x60a0604052670de0b6b3a764000034101561001957600080fd5b3373ffffffffffffffffffffffffffffffffffffffff1660808173ffffffffffffffffffffffffffffffffffffffff1681525050600160036000600160ff16815260200190815260200160002060006101000a81548160ff021916908360ff160217905550600560036000600260ff16815260200190815260200160002060006101000a81548160ff021916908360ff160217905550600a60036000600360ff16815260200190815260200160002060006101000a81548160ff021916908360ff1602179055506080516124376100fb600039600061022601526124376000f3fe6080604052600436106200008b5760003560e01c8063a75ac6081162000055578063a75ac6081462000160578063af9b82d9146200016c578063e2978f3a14620001b0578063f1ba712714620001f45762000093565b80632e1a7d4d146200009857806360a31a8814620000b85780636353b81814620000fc57806395c1d18c146200011c5762000093565b366200009357005b600080fd5b620000b66004803603810190620000b0919062000a75565b62000224565b005b348015620000c557600080fd5b50620000e46004803603810190620000de919062000ae5565b6200030a565b604051620000f3919062000b28565b60405180910390f35b6200011a600480360381019062000114919062000baa565b6200032a565b005b3480156200012957600080fd5b5062000148600480360381019062000142919062000c06565b62000671565b60405162000157919062000c49565b60405180910390f35b6200016a620006a4565b005b3480156200017957600080fd5b5062000198600480360381019062000192919062000c06565b620008fb565b604051620001a7919062000c49565b60405180910390f35b348015620001bd57600080fd5b50620001dc6004803603810190620001d6919062000c06565b6200092e565b604051620001eb919062000c49565b60405180910390f35b3480156200020157600080fd5b506200020c62000997565b6040516200021b919062000d34565b60405180910390f35b7f000000000000000000000000000000000000000000000000000000000000000073ffffffffffffffffffffffffffffffffffffffff163373ffffffffffffffffffffffffffffffffffffffff16146200027d57600080fd5b804710156200028b57600080fd5b60003373ffffffffffffffffffffffffffffffffffffffff1682604051620002b39062000d8d565b60006040518083038185875af1925050503d8060008114620002f2576040519150601f19603f3d011682016040523d82523d6000602084013e620002f7565b606091505b50509050806200030657600080fd5b5050565b60036020528060005260406000206000915054906101000a900460ff1681565b600073ffffffffffffffffffffffffffffffffffffffff16600160003373ffffffffffffffffffffffffffffffffffffffff1673ffffffffffffffffffffffffffffffffffffffff16815260200190815260200160002060009054906101000a900473ffffffffffffffffffffffffffffffffffffffff1673ffffffffffffffffffffffffffffffffffffffff1614620003c357600080fd5b60008273ffffffffffffffffffffffffffffffffffffffff163190506000600360008660ff1660ff16815260200190815260200160002060009054906101000a900460ff16905060008160ff160362000453576040517f08c379a00000000000000000000000000000000000000000000000000000000081526004016200044a9062000e05565b60405180910390fd5b6064838260ff168462000467919062000e56565b62000473919062000e56565b6200047f919062000ed0565b3414620004c3576040517f08c379a0000000000000000000000000000000000000000000000000000000008152600401620004ba9062000f58565b60405180910390fd5b6000818533858730604051620004d99062000a27565b620004ea9695949392919062000fce565b604051809103906000f08015801562000507573d6000803e3d6000fd5b50905080600160003373ffffffffffffffffffffffffffffffffffffffff1673ffffffffffffffffffffffffffffffffffffffff16815260200190815260200160002060006101000a81548173ffffffffffffffffffffffffffffffffffffffff021916908373ffffffffffffffffffffffffffffffffffffffff16021790555033600260008373ffffffffffffffffffffffffffffffffffffffff1673ffffffffffffffffffffffffffffffffffffffff16815260200190815260200160002060006101000a81548173ffffffffffffffffffffffffffffffffffffffff021916908373ffffffffffffffffffffffffffffffffffffffff1602179055506000339080600181540180825580915050600190039060005260206000200160009091909190916101000a81548173ffffffffffffffffffffffffffffffffffffffff021916908373ffffffffffffffffffffffffffffffffffffffff160217905550505050505050565b60016020528060005260406000206000915054906101000a900473ffffffffffffffffffffffffffffffffffffffff1681565b600073ffffffffffffffffffffffffffffffffffffffff16600260003373ffffffffffffffffffffffffffffffffffffffff1673ffffffffffffffffffffffffffffffffffffffff16815260200190815260200160002060009054906101000a900473ffffffffffffffffffffffffffffffffffffffff1673ffffffffffffffffffffffffffffffffffffffff16036200073d57600080fd5b600033905060008173ffffffffffffffffffffffffffffffffffffffff166371127ed26040518163ffffffff1660e01b8152600401602060405180830381865afa15801562000790573d6000803e3d6000fd5b505050506040513d601f19601f82011682018060405250810190620007b6919062001052565b905060008103620007fe576040517f08c379a0000000000000000000000000000000000000000000000000000000008152600401620007f590620010d4565b60405180910390fd5b47811062000843576040517f08c379a00000000000000000000000000000000000000000000000000000000081526004016200083a9062001146565b60405180910390fd5b60003373ffffffffffffffffffffffffffffffffffffffff16826040516200086b9062000d8d565b60006040518083038185875af1925050503d8060008114620008aa576040519150601f19603f3d011682016040523d82523d6000602084013e620008af565b606091505b5050905080620008f6576040517f08c379a0000000000000000000000000000000000000000000000000000000008152600401620008ed90620011b8565b60405180910390fd5b505050565b60026020528060005260406000206000915054906101000a900473ffffffffffffffffffffffffffffffffffffffff1681565b6000600160008373ffffffffffffffffffffffffffffffffffffffff1673ffffffffffffffffffffffffffffffffffffffff16815260200190815260200160002060009054906101000a900473ffffffffffffffffffffffffffffffffffffffff169050919050565b6060600080548060200260200160405190810160405280929190818152602001828054801562000a1d57602002820191906000526020600020905b8160009054906101000a900473ffffffffffffffffffffffffffffffffffffffff1673ffffffffffffffffffffffffffffffffffffffff1681526020019060010190808311620009d2575b5050505050905090565b61122780620011db83390190565b600080fd5b6000819050919050565b62000a4f8162000a3a565b811462000a5b57600080fd5b50565b60008135905062000a6f8162000a44565b92915050565b60006020828403121562000a8e5762000a8d62000a35565b5b600062000a9e8482850162000a5e565b91505092915050565b600060ff82169050919050565b62000abf8162000aa7565b811462000acb57600080fd5b50565b60008135905062000adf8162000ab4565b92915050565b60006020828403121562000afe5762000afd62000a35565b5b600062000b0e8482850162000ace565b91505092915050565b62000b228162000aa7565b82525050565b600060208201905062000b3f600083018462000b17565b92915050565b600073ffffffffffffffffffffffffffffffffffffffff82169050919050565b600062000b728262000b45565b9050919050565b62000b848162000b65565b811462000b9057600080fd5b50565b60008135905062000ba48162000b79565b92915050565b60008060006060848603121562000bc65762000bc562000a35565b5b600062000bd68682870162000ace565b935050602062000be98682870162000b93565b925050604062000bfc8682870162000a5e565b9150509250925092565b60006020828403121562000c1f5762000c1e62000a35565b5b600062000c2f8482850162000b93565b91505092915050565b62000c438162000b65565b82525050565b600060208201905062000c60600083018462000c38565b92915050565b600081519050919050565b600082825260208201905092915050565b6000819050602082019050919050565b62000c9d8162000b65565b82525050565b600062000cb1838362000c92565b60208301905092915050565b6000602082019050919050565b600062000cd78262000c66565b62000ce3818562000c71565b935062000cf08362000c82565b8060005b8381101562000d2757815162000d0b888262000ca3565b975062000d188362000cbd565b92505060018101905062000cf4565b5085935050505092915050565b6000602082019050818103600083015262000d50818462000cca565b905092915050565b600081905092915050565b50565b600062000d7560008362000d58565b915062000d828262000d63565b600082019050919050565b600062000d9a8262000d66565b9150819050919050565b600082825260208201905092915050565b7f496e76616c696420506c616e0000000000000000000000000000000000000000600082015250565b600062000ded600c8362000da4565b915062000dfa8262000db5565b602082019050919050565b6000602082019050818103600083015262000e208162000dde565b9050919050565b7f4e487b7100000000000000000000000000000000000000000000000000000000600052601160045260246000fd5b600062000e638262000a3a565b915062000e708362000a3a565b925082820262000e808162000a3a565b9150828204841483151762000e9a5762000e9962000e27565b5b5092915050565b7f4e487b7100000000000000000000000000000000000000000000000000000000600052601260045260246000fd5b600062000edd8262000a3a565b915062000eea8362000a3a565b92508262000efd5762000efc62000ea1565b5b828204905092915050565b7f4e6f742073656e6420496e737572616e636520416d6f756e7400000000000000600082015250565b600062000f4060198362000da4565b915062000f4d8262000f08565b602082019050919050565b6000602082019050818103600083015262000f738162000f31565b9050919050565b6000819050919050565b600062000fa562000f9f62000f998462000aa7565b62000f7a565b62000a3a565b9050919050565b62000fb78162000f84565b82525050565b62000fc88162000a3a565b82525050565b600060c08201905062000fe5600083018962000fac565b62000ff4602083018862000c38565b62001003604083018762000c38565b62001012606083018662000fbd565b62001021608083018562000fbd565b6200103060a083018462000c38565b979650505050505050565b6000815190506200104c8162000a44565b92915050565b6000602082840312156200106b576200106a62000a35565b5b60006200107b848285016200103b565b91505092915050565b7f436c61696d20416d6f756e742053686f756c64206e6f74206265203000000000600082015250565b6000620010bc601c8362000da4565b9150620010c98262001084565b602082019050919050565b60006020820190508181036000830152620010ef81620010ad565b9050919050565b7f4e6f7420656e6f7567682046756e647320696e20436f6e747261637400000000600082015250565b60006200112e601c8362000da4565b91506200113b82620010f6565b602082019050919050565b6000602082019050818103600083015262001161816200111f565b9050919050565b7f5472616e73616374696f6e20776173206e6f7420737563636573737366756c00600082015250565b6000620011a0601f8362000da4565b9150620011ad8262001168565b602082019050919050565b60006020820190508181036000830152620011d38162001191565b905091905056fe6101406040523480156200001257600080fd5b5060405162001227380380620012278339818101604052810190620000389190620001bc565b8560c081815250508473ffffffffffffffffffffffffffffffffffffffff1660a08173ffffffffffffffffffffffffffffffffffffffff16815250508373ffffffffffffffffffffffffffffffffffffffff1660808173ffffffffffffffffffffffffffffffffffffffff16815250508260e081815250506228206f82620000c1919062000287565b42620000ce9190620002d2565b61010081815250508073ffffffffffffffffffffffffffffffffffffffff166101208173ffffffffffffffffffffffffffffffffffffffff16815250505050505050506200030d565b600080fd5b6000819050919050565b62000131816200011c565b81146200013d57600080fd5b50565b600081519050620001518162000126565b92915050565b600073ffffffffffffffffffffffffffffffffffffffff82169050919050565b6000620001848262000157565b9050919050565b620001968162000177565b8114620001a257600080fd5b50565b600081519050620001b6816200018b565b92915050565b60008060008060008060c08789031215620001dc57620001db62000117565b5b6000620001ec89828a0162000140565b9650506020620001ff89828a01620001a5565b95505060406200021289828a01620001a5565b94505060606200022589828a0162000140565b93505060806200023889828a0162000140565b92505060a06200024b89828a01620001a5565b9150509295509295509295565b7f4e487b7100000000000000000000000000000000000000000000000000000000600052601160045260246000fd5b600062000294826200011c565b9150620002a1836200011c565b9250828202620002b1816200011c565b91508282048414831517620002cb57620002ca62000258565b5b5092915050565b6000620002df826200011c565b9150620002ec836200011c565b925082820190508082111562000307576200030662000258565b5b92915050565b60805160a05160c05160e0516101005161012051610e7d620003aa600039600061034001526000818161021c01526107c60152600081816104b40152818161072c0152818161087901526108cb01526000818161049001526108aa01526000818161067a0152818161074d0152610841015260008181610240015281816104e80152818161050c0152818161059c015261069e0152610e7d6000f3fe6080604052600436106100955760003560e01c8063830953ab11610059578063830953ab146101645780638da5cb5b1461018f578063e777468b146101ba578063e834a834146101c4578063f6b4dfb4146101ef5761009c565b80633e98d1fb146100a15780634e71d92d146100cc57806353e06571146100e3578063563fa5fe1461010e57806371127ed2146101395761009c565b3661009c57005b600080fd5b3480156100ad57600080fd5b506100b661021a565b6040516100c39190610939565b60405180910390f35b3480156100d857600080fd5b506100e161023e565b005b3480156100ef57600080fd5b506100f861048e565b6040516101059190610939565b60405180910390f35b34801561011a57600080fd5b506101236104b2565b6040516101309190610939565b60405180910390f35b34801561014557600080fd5b5061014e6104d6565b60405161015b9190610939565b60405180910390f35b34801561017057600080fd5b506101796104e0565b6040516101869190610939565b60405180910390f35b34801561019b57600080fd5b506101a46104e6565b6040516101b19190610995565b60405180910390f35b6101c261050a565b005b3480156101d057600080fd5b506101d9610667565b6040516101e691906109cb565b60405180910390f35b3480156101fb57600080fd5b50610204610678565b6040516102119190610995565b60405180910390f35b7f000000000000000000000000000000000000000000000000000000000000000081565b7f000000000000000000000000000000000000000000000000000000000000000073ffffffffffffffffffffffffffffffffffffffff163373ffffffffffffffffffffffffffffffffffffffff16146102cc576040517f08c379a00000000000000000000000000000000000000000000000000000000081526004016102c390610a43565b60405180910390fd5b60008054906101000a900460ff161561031a576040517f08c379a000000000000000000000000000000000000000000000000000000000815260040161031190610aaf565b60405180910390fd5b61032261069c565b60016000806101000a81548160ff02191690831515021790555060007f000000000000000000000000000000000000000000000000000000000000000073ffffffffffffffffffffffffffffffffffffffff166040516024016040516020818303038152906040527fa75ac608000000000000000000000000000000000000000000000000000000007bffffffffffffffffffffffffffffffffffffffffffffffffffffffff19166020820180517bffffffffffffffffffffffffffffffffffffffffffffffffffffffff83818316178352505050506040516104059190610b40565b6000604051808303816000865af19150503d8060008114610442576040519150601f19603f3d011682016040523d82523d6000602084013e610447565b606091505b505090508061048b576040517f08c379a000000000000000000000000000000000000000000000000000000000815260040161048290610ba3565b60405180910390fd5b50565b7f000000000000000000000000000000000000000000000000000000000000000081565b7f000000000000000000000000000000000000000000000000000000000000000081565b6000600154905090565b60015481565b7f000000000000000000000000000000000000000000000000000000000000000081565b7f000000000000000000000000000000000000000000000000000000000000000073ffffffffffffffffffffffffffffffffffffffff163373ffffffffffffffffffffffffffffffffffffffff1614610598576040517f08c379a000000000000000000000000000000000000000000000000000000000815260040161058f90610a43565b60405180910390fd5b60007f000000000000000000000000000000000000000000000000000000000000000073ffffffffffffffffffffffffffffffffffffffff16476040516105de90610be9565b60006040518083038185875af1925050503d806000811461061b576040519150601f19603f3d011682016040523d82523d6000602084013e610620565b606091505b5050905080610664576040517f08c379a000000000000000000000000000000000000000000000000000000000815260040161065b90610c4a565b60405180910390fd5b50565b60008054906101000a900460ff1681565b7f000000000000000000000000000000000000000000000000000000000000000081565b7f000000000000000000000000000000000000000000000000000000000000000073ffffffffffffffffffffffffffffffffffffffff163373ffffffffffffffffffffffffffffffffffffffff161461072a576040517f08c379a000000000000000000000000000000000000000000000000000000000815260040161072190610a43565b60405180910390fd5b7f00000000000000000000000000000000000000000000000000000000000000007f000000000000000000000000000000000000000000000000000000000000000073ffffffffffffffffffffffffffffffffffffffff1631106107c3576040517f08c379a00000000000000000000000000000000000000000000000000000000081526004016107ba90610cb6565b60405180910390fd5b427f000000000000000000000000000000000000000000000000000000000000000011610825576040517f08c379a000000000000000000000000000000000000000000000000000000000815260040161081c90610d22565b60405180910390fd5b60008054906101000a900460ff161561083d57600080fd5b60007f000000000000000000000000000000000000000000000000000000000000000073ffffffffffffffffffffffffffffffffffffffff16317f00000000000000000000000000000000000000000000000000000000000000006108a29190610d71565b90506000600a7f00000000000000000000000000000000000000000000000000000000000000007f00000000000000000000000000000000000000000000000000000000000000006108f49190610da5565b6108fe9190610e16565b905080821015610914578160018190555061091c565b806001819055505b5050565b6000819050919050565b61093381610920565b82525050565b600060208201905061094e600083018461092a565b92915050565b600073ffffffffffffffffffffffffffffffffffffffff82169050919050565b600061097f82610954565b9050919050565b61098f81610974565b82525050565b60006020820190506109aa6000830184610986565b92915050565b60008115159050919050565b6109c5816109b0565b82525050565b60006020820190506109e060008301846109bc565b92915050565b600082825260208201905092915050565b7f4f6e6c79204f776e657200000000000000000000000000000000000000000000600082015250565b6000610a2d600a836109e6565b9150610a38826109f7565b602082019050919050565b60006020820190508181036000830152610a5c81610a20565b9050919050565b7f416c726561647920436c61696d65642052657761726400000000000000000000600082015250565b6000610a996016836109e6565b9150610aa482610a63565b602082019050919050565b60006020820190508181036000830152610ac881610a8c565b9050919050565b600081519050919050565b600081905092915050565b60005b83811015610b03578082015181840152602081019050610ae8565b60008484015250505050565b6000610b1a82610acf565b610b248185610ada565b9350610b34818560208601610ae5565b80840191505092915050565b6000610b4c8284610b0f565b915081905092915050565b7f5472616e73616374696f6e204661696c656420696e20636c61696d0000000000600082015250565b6000610b8d601b836109e6565b9150610b9882610b57565b602082019050919050565b60006020820190508181036000830152610bbc81610b80565b9050919050565b50565b6000610bd3600083610ada565b9150610bde82610bc3565b600082019050919050565b6000610bf482610bc6565b9150819050919050565b7f4661696c6564205472616e73616374696f6e0000000000000000000000000000600082015250565b6000610c346012836109e6565b9150610c3f82610bfe565b602082019050919050565b60006020820190508181036000830152610c6381610c27565b9050919050565b7f5468657265206973206e6f206368616e676520696e2042616c616e6365000000600082015250565b6000610ca0601d836109e6565b9150610cab82610c6a565b602082019050919050565b60006020820190508181036000830152610ccf81610c93565b9050919050565b7f4f6f707320796f757220496e737572616e636520457870697265640000000000600082015250565b6000610d0c601b836109e6565b9150610d1782610cd6565b602082019050919050565b60006020820190508181036000830152610d3b81610cff565b9050919050565b7f4e487b7100000000000000000000000000000000000000000000000000000000600052601160045260246000fd5b6000610d7c82610920565b9150610d8783610920565b9250828203905081811115610d9f57610d9e610d42565b5b92915050565b6000610db082610920565b9150610dbb83610920565b9250828202610dc981610920565b91508282048414831517610de057610ddf610d42565b5b5092915050565b7f4e487b7100000000000000000000000000000000000000000000000000000000600052601260045260246000fd5b6000610e2182610920565b9150610e2c83610920565b925082610e3c57610e3b610de7565b5b82820490509291505056fea2646970667358221220e9531a7f936161b5fc2bded55a7bd9b163629feafde8b5bdf1a1db2b10be244064736f6c63430008120033a264697066735822122060cffef9f684d29db15018e44b4905339d960aae283537c514e1220bc9ec1a8864736f6c63430008120033",
  "linkReferences": {},
  "deployedLinkReferences": {}
}