{
  "_format": "hh-sol-artifact-1",
  "contractName": "CryptoWalletInsurance",
  "sourceName": "contracts/ContractInsurance.sol",
  "abi": [
    {
      "inputs": [
        {
          "internalType": "uint256",
          "name": "_plan",
          "type": "uint256"
        },
        {
          "internalType": "address",
          "name": "_contractAddress",
          "type": "address"
        },
        {
          "internalType": "address",
          "name": "_owner",
          "type": "address"
        },
        {
          "internalType": "uint256",
          "name": "_amountInsured",
          "type": "uint256"
        },
        {
          "internalType": "uint256",
          "name": "_validity",
          "type": "uint256"
        },
        {
          "internalType": "address",
          "name": "factoryContract",
          "type": "address"
        }
      ],
      "stateMutability": "nonpayable",
      "type": "constructor"
    },
    {
      "inputs": [],
      "name": "amountInsured",
      "outputs": [
        {
          "internalType": "uint256",
          "name": "",
          "type": "uint256"
        }
      ],
      "stateMutability": "view",
      "type": "function"
    },
    {
      "inputs": [],
      "name": "claim",
      "outputs": [],
      "stateMutability": "nonpayable",
      "type": "function"
    },
    {
      "inputs": [],
      "name": "claimAmount",
      "outputs": [
        {
          "internalType": "uint256",
          "name": "",
          "type": "uint256"
        }
      ],
      "stateMutability": "view",
      "type": "function"
    },
    {
      "inputs": [],
      "name": "claimed",
      "outputs": [
        {
          "internalType": "bool",
          "name": "",
          "type": "bool"
        }
      ],
      "stateMutability": "view",
      "type": "function"
    },
    {
      "inputs": [],
      "name": "contractAddress",
      "outputs": [
        {
          "internalType": "address",
          "name": "",
          "type": "address"
        }
      ],
      "stateMutability": "view",
      "type": "function"
    },
    {
      "inputs": [],
      "name": "getClaimAmount",
      "outputs": [
        {
          "internalType": "uint256",
          "name": "",
          "type": "uint256"
        }
      ],
      "stateMutability": "view",
      "type": "function"
    },
    {
      "inputs": [],
      "name": "owner",
      "outputs": [
        {
          "internalType": "address",
          "name": "",
          "type": "address"
        }
      ],
      "stateMutability": "view",
      "type": "function"
    },
    {
      "inputs": [],
      "name": "plan",
      "outputs": [
        {
          "internalType": "uint256",
          "name": "",
          "type": "uint256"
        }
      ],
      "stateMutability": "view",
      "type": "function"
    },
    {
      "inputs": [],
      "name": "validity",
      "outputs": [
        {
          "internalType": "uint256",
          "name": "",
          "type": "uint256"
        }
      ],
      "stateMutability": "view",
      "type": "function"
    },
    {
      "inputs": [],
      "name": "withdrawClaim",
      "outputs": [],
      "stateMutability": "payable",
      "type": "function"
    },
    {
      "stateMutability": "payable",
      "type": "receive"
    }
  ],
  "bytecode": "0x6101406040523480156200001257600080fd5b5060405162001227380380620012278339818101604052810190620000389190620001bc565b8560c081815250508473ffffffffffffffffffffffffffffffffffffffff1660a08173ffffffffffffffffffffffffffffffffffffffff16815250508373ffffffffffffffffffffffffffffffffffffffff1660808173ffffffffffffffffffffffffffffffffffffffff16815250508260e081815250506228206f82620000c1919062000287565b42620000ce9190620002d2565b61010081815250508073ffffffffffffffffffffffffffffffffffffffff166101208173ffffffffffffffffffffffffffffffffffffffff16815250505050505050506200030d565b600080fd5b6000819050919050565b62000131816200011c565b81146200013d57600080fd5b50565b600081519050620001518162000126565b92915050565b600073ffffffffffffffffffffffffffffffffffffffff82169050919050565b6000620001848262000157565b9050919050565b620001968162000177565b8114620001a257600080fd5b50565b600081519050620001b6816200018b565b92915050565b60008060008060008060c08789031215620001dc57620001db62000117565b5b6000620001ec89828a0162000140565b9650506020620001ff89828a01620001a5565b95505060406200021289828a01620001a5565b94505060606200022589828a0162000140565b93505060806200023889828a0162000140565b92505060a06200024b89828a01620001a5565b9150509295509295509295565b7f4e487b7100000000000000000000000000000000000000000000000000000000600052601160045260246000fd5b600062000294826200011c565b9150620002a1836200011c565b9250828202620002b1816200011c565b91508282048414831517620002cb57620002ca62000258565b5b5092915050565b6000620002df826200011c565b9150620002ec836200011c565b925082820190508082111562000307576200030662000258565b5b92915050565b60805160a05160c05160e0516101005161012051610e7d620003aa600039600061034001526000818161021c01526107c60152600081816104b40152818161072c0152818161087901526108cb01526000818161049001526108aa01526000818161067a0152818161074d0152610841015260008181610240015281816104e80152818161050c0152818161059c015261069e0152610e7d6000f3fe6080604052600436106100955760003560e01c8063830953ab11610059578063830953ab146101645780638da5cb5b1461018f578063e777468b146101ba578063e834a834146101c4578063f6b4dfb4146101ef5761009c565b80633e98d1fb146100a15780634e71d92d146100cc57806353e06571146100e3578063563fa5fe1461010e57806371127ed2146101395761009c565b3661009c57005b600080fd5b3480156100ad57600080fd5b506100b661021a565b6040516100c39190610939565b60405180910390f35b3480156100d857600080fd5b506100e161023e565b005b3480156100ef57600080fd5b506100f861048e565b6040516101059190610939565b60405180910390f35b34801561011a57600080fd5b506101236104b2565b6040516101309190610939565b60405180910390f35b34801561014557600080fd5b5061014e6104d6565b60405161015b9190610939565b60405180910390f35b34801561017057600080fd5b506101796104e0565b6040516101869190610939565b60405180910390f35b34801561019b57600080fd5b506101a46104e6565b6040516101b19190610995565b60405180910390f35b6101c261050a565b005b3480156101d057600080fd5b506101d9610667565b6040516101e691906109cb565b60405180910390f35b3480156101fb57600080fd5b50610204610678565b6040516102119190610995565b60405180910390f35b7f000000000000000000000000000000000000000000000000000000000000000081565b7f000000000000000000000000000000000000000000000000000000000000000073ffffffffffffffffffffffffffffffffffffffff163373ffffffffffffffffffffffffffffffffffffffff16146102cc576040517f08c379a00000000000000000000000000000000000000000000000000000000081526004016102c390610a43565b60405180910390fd5b60008054906101000a900460ff161561031a576040517f08c379a000000000000000000000000000000000000000000000000000000000815260040161031190610aaf565b60405180910390fd5b61032261069c565b60016000806101000a81548160ff02191690831515021790555060007f000000000000000000000000000000000000000000000000000000000000000073ffffffffffffffffffffffffffffffffffffffff166040516024016040516020818303038152906040527fa75ac608000000000000000000000000000000000000000000000000000000007bffffffffffffffffffffffffffffffffffffffffffffffffffffffff19166020820180517bffffffffffffffffffffffffffffffffffffffffffffffffffffffff83818316178352505050506040516104059190610b40565b6000604051808303816000865af19150503d8060008114610442576040519150601f19603f3d011682016040523d82523d6000602084013e610447565b606091505b505090508061048b576040517f08c379a000000000000000000000000000000000000000000000000000000000815260040161048290610ba3565b60405180910390fd5b50565b7f000000000000000000000000000000000000000000000000000000000000000081565b7f000000000000000000000000000000000000000000000000000000000000000081565b6000600154905090565b60015481565b7f000000000000000000000000000000000000000000000000000000000000000081565b7f000000000000000000000000000000000000000000000000000000000000000073ffffffffffffffffffffffffffffffffffffffff163373ffffffffffffffffffffffffffffffffffffffff1614610598576040517f08c379a000000000000000000000000000000000000000000000000000000000815260040161058f90610a43565b60405180910390fd5b60007f000000000000000000000000000000000000000000000000000000000000000073ffffffffffffffffffffffffffffffffffffffff16476040516105de90610be9565b60006040518083038185875af1925050503d806000811461061b576040519150601f19603f3d011682016040523d82523d6000602084013e610620565b606091505b5050905080610664576040517f08c379a000000000000000000000000000000000000000000000000000000000815260040161065b90610c4a565b60405180910390fd5b50565b60008054906101000a900460ff1681565b7f000000000000000000000000000000000000000000000000000000000000000081565b7f000000000000000000000000000000000000000000000000000000000000000073ffffffffffffffffffffffffffffffffffffffff163373ffffffffffffffffffffffffffffffffffffffff161461072a576040517f08c379a000000000000000000000000000000000000000000000000000000000815260040161072190610a43565b60405180910390fd5b7f00000000000000000000000000000000000000000000000000000000000000007f000000000000000000000000000000000000000000000000000000000000000073ffffffffffffffffffffffffffffffffffffffff1631106107c3576040517f08c379a00000000000000000000000000000000000000000000000000000000081526004016107ba90610cb6565b60405180910390fd5b427f000000000000000000000000000000000000000000000000000000000000000011610825576040517f08c379a000000000000000000000000000000000000000000000000000000000815260040161081c90610d22565b60405180910390fd5b60008054906101000a900460ff161561083d57600080fd5b60007f000000000000000000000000000000000000000000000000000000000000000073ffffffffffffffffffffffffffffffffffffffff16317f00000000000000000000000000000000000000000000000000000000000000006108a29190610d71565b90506000600a7f00000000000000000000000000000000000000000000000000000000000000007f00000000000000000000000000000000000000000000000000000000000000006108f49190610da5565b6108fe9190610e16565b905080821015610914578160018190555061091c565b806001819055505b5050565b6000819050919050565b61093381610920565b82525050565b600060208201905061094e600083018461092a565b92915050565b600073ffffffffffffffffffffffffffffffffffffffff82169050919050565b600061097f82610954565b9050919050565b61098f81610974565b82525050565b60006020820190506109aa6000830184610986565b92915050565b60008115159050919050565b6109c5816109b0565b82525050565b60006020820190506109e060008301846109bc565b92915050565b600082825260208201905092915050565b7f4f6e6c79204f776e657200000000000000000000000000000000000000000000600082015250565b6000610a2d600a836109e6565b9150610a38826109f7565b602082019050919050565b60006020820190508181036000830152610a5c81610a20565b9050919050565b7f416c726561647920436c61696d65642052657761726400000000000000000000600082015250565b6000610a996016836109e6565b9150610aa482610a63565b602082019050919050565b60006020820190508181036000830152610ac881610a8c565b9050919050565b600081519050919050565b600081905092915050565b60005b83811015610b03578082015181840152602081019050610ae8565b60008484015250505050565b6000610b1a82610acf565b610b248185610ada565b9350610b34818560208601610ae5565b80840191505092915050565b6000610b4c8284610b0f565b915081905092915050565b7f5472616e73616374696f6e204661696c656420696e20636c61696d0000000000600082015250565b6000610b8d601b836109e6565b9150610b9882610b57565b602082019050919050565b60006020820190508181036000830152610bbc81610b80565b9050919050565b50565b6000610bd3600083610ada565b9150610bde82610bc3565b600082019050919050565b6000610bf482610bc6565b9150819050919050565b7f4661696c6564205472616e73616374696f6e0000000000000000000000000000600082015250565b6000610c346012836109e6565b9150610c3f82610bfe565b602082019050919050565b60006020820190508181036000830152610c6381610c27565b9050919050565b7f5468657265206973206e6f206368616e676520696e2042616c616e6365000000600082015250565b6000610ca0601d836109e6565b9150610cab82610c6a565b602082019050919050565b60006020820190508181036000830152610ccf81610c93565b9050919050565b7f4f6f707320796f757220496e737572616e636520457870697265640000000000600082015250565b6000610d0c601b836109e6565b9150610d1782610cd6565b602082019050919050565b60006020820190508181036000830152610d3b81610cff565b9050919050565b7f4e487b7100000000000000000000000000000000000000000000000000000000600052601160045260246000fd5b6000610d7c82610920565b9150610d8783610920565b9250828203905081811115610d9f57610d9e610d42565b5b92915050565b6000610db082610920565b9150610dbb83610920565b9250828202610dc981610920565b91508282048414831517610de057610ddf610d42565b5b5092915050565b7f4e487b7100000000000000000000000000000000000000000000000000000000600052601260045260246000fd5b6000610e2182610920565b9150610e2c83610920565b925082610e3c57610e3b610de7565b5b82820490509291505056fea2646970667358221220e9531a7f936161b5fc2bded55a7bd9b163629feafde8b5bdf1a1db2b10be244064736f6c63430008120033",
  "linkReferences": {},
  "deployedLinkReferences": {}
}