{
  "_format": "hh-sol-artifact-1",
  "contractName": "AssetWalletInsurance",
  "sourceName": "contracts/AssetInsurance.sol",
  "abi": [
    {
      "inputs": [
        {
          "internalType": "address",
          "name": "_owner",
          "type": "address"
        },
        {
          "internalType": "address",
          "name": "_assetAddress",
          "type": "address"
        },
        {
          "internalType": "uint256",
          "name": "_tokensInsured",
          "type": "uint256"
        },
        {
          "internalType": "uint256",
          "name": "_plan",
          "type": "uint256"
        },
        {
          "internalType": "uint256",
          "name": "_timePeriod",
          "type": "uint256"
        },
        {
          "internalType": "address",
          "name": "_factoryContract",
          "type": "address"
        },
        {
          "internalType": "address",
          "name": "_oracleAddress",
          "type": "address"
        },
        {
          "internalType": "uint256",
          "name": "_priceAtInsurance",
          "type": "uint256"
        },
        {
          "internalType": "uint256",
          "name": "_decimals",
          "type": "uint256"
        }
      ],
      "stateMutability": "nonpayable",
      "type": "constructor"
    },
    {
      "inputs": [],
      "name": "assetAddress",
      "outputs": [
        {
          "internalType": "address",
          "name": "",
          "type": "address"
        }
      ],
      "stateMutability": "view",
      "type": "function"
    },
    {
      "inputs": [],
      "name": "claim",
      "outputs": [],
      "stateMutability": "nonpayable",
      "type": "function"
    },
    {
      "inputs": [],
      "name": "claimAmount",
      "outputs": [
        {
          "internalType": "uint256",
          "name": "",
          "type": "uint256"
        }
      ],
      "stateMutability": "view",
      "type": "function"
    },
    {
      "inputs": [],
      "name": "claimed",
      "outputs": [
        {
          "internalType": "bool",
          "name": "",
          "type": "bool"
        }
      ],
      "stateMutability": "view",
      "type": "function"
    },
    {
      "inputs": [],
      "name": "decimals",
      "outputs": [
        {
          "internalType": "uint256",
          "name": "",
          "type": "uint256"
        }
      ],
      "stateMutability": "view",
      "type": "function"
    },
    {
      "inputs": [],
      "name": "factoryContract",
      "outputs": [
        {
          "internalType": "address",
          "name": "",
          "type": "address"
        }
      ],
      "stateMutability": "view",
      "type": "function"
    },
    {
      "inputs": [],
      "name": "getClaimAmount",
      "outputs": [
        {
          "internalType": "uint256",
          "name": "",
          "type": "uint256"
        }
      ],
      "stateMutability": "view",
      "type": "function"
    },
    {
      "inputs": [
        {
          "internalType": "address",
          "name": "_oracleAddress",
          "type": "address"
        }
      ],
      "name": "getFeedValueOfAsset",
      "outputs": [
        {
          "internalType": "uint256",
          "name": "",
          "type": "uint256"
        }
      ],
      "stateMutability": "view",
      "type": "function"
    },
    {
      "inputs": [
        {
          "internalType": "uint256",
          "name": "_currentPrice",
          "type": "uint256"
        }
      ],
      "name": "getInsuranceAmount",
      "outputs": [
        {
          "internalType": "uint256",
          "name": "",
          "type": "uint256"
        }
      ],
      "stateMutability": "view",
      "type": "function"
    },
    {
      "inputs": [
        {
          "internalType": "address",
          "name": "tokenAddress",
          "type": "address"
        },
        {
          "internalType": "address",
          "name": "accountAddress",
          "type": "address"
        }
      ],
      "name": "getTokenBalance",
      "outputs": [
        {
          "internalType": "uint256",
          "name": "",
          "type": "uint256"
        }
      ],
      "stateMutability": "view",
      "type": "function"
    },
    {
      "inputs": [],
      "name": "isClaimed",
      "outputs": [
        {
          "internalType": "bool",
          "name": "",
          "type": "bool"
        }
      ],
      "stateMutability": "view",
      "type": "function"
    },
    {
      "inputs": [],
      "name": "oracleAddress",
      "outputs": [
        {
          "internalType": "address",
          "name": "",
          "type": "address"
        }
      ],
      "stateMutability": "view",
      "type": "function"
    },
    {
      "inputs": [],
      "name": "owner",
      "outputs": [
        {
          "internalType": "address",
          "name": "",
          "type": "address"
        }
      ],
      "stateMutability": "view",
      "type": "function"
    },
    {
      "inputs": [],
      "name": "plan",
      "outputs": [
        {
          "internalType": "uint256",
          "name": "",
          "type": "uint256"
        }
      ],
      "stateMutability": "view",
      "type": "function"
    },
    {
      "inputs": [],
      "name": "priceAtInsurance",
      "outputs": [
        {
          "internalType": "uint256",
          "name": "",
          "type": "uint256"
        }
      ],
      "stateMutability": "view",
      "type": "function"
    },
    {
      "inputs": [],
      "name": "timePeriod",
      "outputs": [
        {
          "internalType": "uint256",
          "name": "",
          "type": "uint256"
        }
      ],
      "stateMutability": "view",
      "type": "function"
    },
    {
      "inputs": [],
      "name": "tokensInsured",
      "outputs": [
        {
          "internalType": "uint256",
          "name": "",
          "type": "uint256"
        }
      ],
      "stateMutability": "view",
      "type": "function"
    },
    {
      "inputs": [],
      "name": "withdrawClaim",
      "outputs": [],
      "stateMutability": "payable",
      "type": "function"
    },
    {
      "stateMutability": "payable",
      "type": "receive"
    }
  ],
  "bytecode": "0x6101606040523480156200001257600080fd5b50604051620019a0380380620019a0833981810160405281019062000038919062000202565b8873ffffffffffffffffffffffffffffffffffffffff1660808173ffffffffffffffffffffffffffffffffffffffff16815250508773ffffffffffffffffffffffffffffffffffffffff1660a08173ffffffffffffffffffffffffffffffffffffffff16815250508660c081815250508560e081815250506228206f85620000c1919062000310565b42620000ce91906200035b565b61010081815250508373ffffffffffffffffffffffffffffffffffffffff166101208173ffffffffffffffffffffffffffffffffffffffff16815250508273ffffffffffffffffffffffffffffffffffffffff166101408173ffffffffffffffffffffffffffffffffffffffff1681525050816001819055508060028190555050505050505050505062000396565b600080fd5b600073ffffffffffffffffffffffffffffffffffffffff82169050919050565b60006200018f8262000162565b9050919050565b620001a18162000182565b8114620001ad57600080fd5b50565b600081519050620001c18162000196565b92915050565b6000819050919050565b620001dc81620001c7565b8114620001e857600080fd5b50565b600081519050620001fc81620001d1565b92915050565b60008060008060008060008060006101208a8c0312156200022857620002276200015d565b5b6000620002388c828d01620001b0565b99505060206200024b8c828d01620001b0565b98505060406200025e8c828d01620001eb565b9750506060620002718c828d01620001eb565b9650506080620002848c828d01620001eb565b95505060a0620002978c828d01620001b0565b94505060c0620002aa8c828d01620001b0565b93505060e0620002bd8c828d01620001eb565b925050610100620002d18c828d01620001eb565b9150509295985092959850929598565b7f4e487b7100000000000000000000000000000000000000000000000000000000600052601160045260246000fd5b60006200031d82620001c7565b91506200032a83620001c7565b92508282026200033a81620001c7565b91508282048414831517620003545762000353620002e1565b5b5092915050565b60006200036882620001c7565b91506200037583620001c7565b925082820190508082111562000390576200038f620002e1565b5b92915050565b60805160a05160c05160e05161010051610120516101405161157062000430600039600081816108190152610b8801526000818161065b01526108c10152600081816105340152610b080152600081816107ab0152610c120152600081816104330152610a550152600061047d015260008181610558015281816107f5015281816108e5015281816109750152610a7901526115706000f3fe60806040526004361061010d5760003560e01c806371127ed211610095578063c489744b11610064578063c489744b14610358578063de11c94a14610395578063e777468b146103c0578063e834a834146103ca578063f2adc4e6146103f557610114565b806371127ed2146102ac578063830953ab146102d75780638da5cb5b14610302578063a89ae4ba1461032d57610114565b806331714929116100dc57806331714929146101d75780633e79d1e1146102145780634e71d92d1461023f57806353e065711461025657806357c9ca141461028157610114565b806316c8d7e9146101195780631ba46cfd146101565780631e7755cd14610181578063313ce567146101ac57610114565b3661011457005b600080fd5b34801561012557600080fd5b50610140600480360381019061013b9190610ca4565b610420565b60405161014d9190610ce0565b60405180910390f35b34801561016257600080fd5b5061016b61047b565b6040516101789190610d3c565b60405180910390f35b34801561018d57600080fd5b5061019661049f565b6040516101a39190610ce0565b60405180910390f35b3480156101b857600080fd5b506101c16104a5565b6040516101ce9190610ce0565b60405180910390f35b3480156101e357600080fd5b506101fe60048036038101906101f99190610d83565b6104ab565b60405161020b9190610ce0565b60405180910390f35b34801561022057600080fd5b50610229610532565b6040516102369190610ce0565b60405180910390f35b34801561024b57600080fd5b50610254610556565b005b34801561026257600080fd5b5061026b6107a9565b6040516102789190610ce0565b60405180910390f35b34801561028d57600080fd5b506102966107cd565b6040516102a39190610dcb565b60405180910390f35b3480156102b857600080fd5b506102c16107e4565b6040516102ce9190610ce0565b60405180910390f35b3480156102e357600080fd5b506102ec6107ed565b6040516102f99190610ce0565b60405180910390f35b34801561030e57600080fd5b506103176107f3565b6040516103249190610d3c565b60405180910390f35b34801561033957600080fd5b50610342610817565b60405161034f9190610d3c565b60405180910390f35b34801561036457600080fd5b5061037f600480360381019061037a9190610de6565b61083b565b60405161038c9190610ce0565b60405180910390f35b3480156103a157600080fd5b506103aa6108bf565b6040516103b79190610d3c565b60405180910390f35b6103c86108e3565b005b3480156103d657600080fd5b506103df610a40565b6040516103ec9190610dcb565b60405180910390f35b34801561040157600080fd5b5061040a610a53565b6040516104179190610ce0565b60405180910390f35b6000600254600a6104319190610f88565b7f0000000000000000000000000000000000000000000000000000000000000000836001546104609190610fd3565b61046a9190611007565b6104749190611078565b9050919050565b7f000000000000000000000000000000000000000000000000000000000000000081565b60015481565b60025481565b60008082905060008173ffffffffffffffffffffffffffffffffffffffff1663feaf968c6040518163ffffffff1660e01b815260040160a060405180830381865afa1580156104fe573d6000803e3d6000fd5b505050506040513d601f19601f820116820180604052508101906105229190611136565b5050509150508092505050919050565b7f000000000000000000000000000000000000000000000000000000000000000081565b7f000000000000000000000000000000000000000000000000000000000000000073ffffffffffffffffffffffffffffffffffffffff163373ffffffffffffffffffffffffffffffffffffffff16146105e4576040517f08c379a00000000000000000000000000000000000000000000000000000000081526004016105db9061120e565b60405180910390fd5b600360009054906101000a900460ff1615610634576040517f08c379a000000000000000000000000000000000000000000000000000000000815260040161062b9061127a565b60405180910390fd5b61063c610a77565b6001600360006101000a81548160ff02191690831515021790555060007f000000000000000000000000000000000000000000000000000000000000000073ffffffffffffffffffffffffffffffffffffffff166040516024016040516020818303038152906040527fa75ac608000000000000000000000000000000000000000000000000000000007bffffffffffffffffffffffffffffffffffffffffffffffffffffffff19166020820180517bffffffffffffffffffffffffffffffffffffffffffffffffffffffff8381831617835250505050604051610720919061130b565b6000604051808303816000865af19150503d806000811461075d576040519150601f19603f3d011682016040523d82523d6000602084013e610762565b606091505b50509050806107a6576040517f08c379a000000000000000000000000000000000000000000000000000000000815260040161079d9061136e565b60405180910390fd5b50565b7f000000000000000000000000000000000000000000000000000000000000000081565b6000600360009054906101000a900460ff16905090565b60008054905090565b60005481565b7f000000000000000000000000000000000000000000000000000000000000000081565b7f000000000000000000000000000000000000000000000000000000000000000081565b60008273ffffffffffffffffffffffffffffffffffffffff166370a08231836040518263ffffffff1660e01b81526004016108769190610d3c565b602060405180830381865afa158015610893573d6000803e3d6000fd5b505050506040513d601f19601f820116820180604052508101906108b7919061138e565b905092915050565b7f000000000000000000000000000000000000000000000000000000000000000081565b7f000000000000000000000000000000000000000000000000000000000000000073ffffffffffffffffffffffffffffffffffffffff163373ffffffffffffffffffffffffffffffffffffffff1614610971576040517f08c379a00000000000000000000000000000000000000000000000000000000081526004016109689061120e565b60405180910390fd5b60007f000000000000000000000000000000000000000000000000000000000000000073ffffffffffffffffffffffffffffffffffffffff16476040516109b7906113e1565b60006040518083038185875af1925050503d80600081146109f4576040519150601f19603f3d011682016040523d82523d6000602084013e6109f9565b606091505b5050905080610a3d576040517f08c379a0000000000000000000000000000000000000000000000000000000008152600401610a3490611442565b60405180910390fd5b50565b600360009054906101000a900460ff1681565b7f000000000000000000000000000000000000000000000000000000000000000081565b7f000000000000000000000000000000000000000000000000000000000000000073ffffffffffffffffffffffffffffffffffffffff163373ffffffffffffffffffffffffffffffffffffffff1614610b05576040517f08c379a0000000000000000000000000000000000000000000000000000000008152600401610afc9061120e565b60405180910390fd5b427f000000000000000000000000000000000000000000000000000000000000000011610b67576040517f08c379a0000000000000000000000000000000000000000000000000000000008152600401610b5e906114ae565b60405180910390fd5b600360009054906101000a900460ff1615610b8157600080fd5b6000610bac7f00000000000000000000000000000000000000000000000000000000000000006104ab565b90506001548110610bf2576040517f08c379a0000000000000000000000000000000000000000000000000000000008152600401610be99061151a565b60405180910390fd5b6000610bfd82610420565b905060008111610c0c57600080fd5b6000600a7f000000000000000000000000000000000000000000000000000000000000000083610c3c9190611007565b610c469190611078565b905080821015610c5c5781600081905550610c64565b806000819055505b505050565b600080fd5b6000819050919050565b610c8181610c6e565b8114610c8c57600080fd5b50565b600081359050610c9e81610c78565b92915050565b600060208284031215610cba57610cb9610c69565b5b6000610cc884828501610c8f565b91505092915050565b610cda81610c6e565b82525050565b6000602082019050610cf56000830184610cd1565b92915050565b600073ffffffffffffffffffffffffffffffffffffffff82169050919050565b6000610d2682610cfb565b9050919050565b610d3681610d1b565b82525050565b6000602082019050610d516000830184610d2d565b92915050565b610d6081610d1b565b8114610d6b57600080fd5b50565b600081359050610d7d81610d57565b92915050565b600060208284031215610d9957610d98610c69565b5b6000610da784828501610d6e565b91505092915050565b60008115159050919050565b610dc581610db0565b82525050565b6000602082019050610de06000830184610dbc565b92915050565b60008060408385031215610dfd57610dfc610c69565b5b6000610e0b85828601610d6e565b9250506020610e1c85828601610d6e565b9150509250929050565b7f4e487b7100000000000000000000000000000000000000000000000000000000600052601160045260246000fd5b60008160011c9050919050565b6000808291508390505b6001851115610eac57808604811115610e8857610e87610e26565b5b6001851615610e975780820291505b8081029050610ea585610e55565b9450610e6c565b94509492505050565b600082610ec55760019050610f81565b81610ed35760009050610f81565b8160018114610ee95760028114610ef357610f22565b6001915050610f81565b60ff841115610f0557610f04610e26565b5b8360020a915084821115610f1c57610f1b610e26565b5b50610f81565b5060208310610133831016604e8410600b8410161715610f575782820a905083811115610f5257610f51610e26565b5b610f81565b610f648484846001610e62565b92509050818404811115610f7b57610f7a610e26565b5b81810290505b9392505050565b6000610f9382610c6e565b9150610f9e83610c6e565b9250610fcb7fffffffffffffffffffffffffffffffffffffffffffffffffffffffffffffffff8484610eb5565b905092915050565b6000610fde82610c6e565b9150610fe983610c6e565b925082820390508181111561100157611000610e26565b5b92915050565b600061101282610c6e565b915061101d83610c6e565b925082820261102b81610c6e565b9150828204841483151761104257611041610e26565b5b5092915050565b7f4e487b7100000000000000000000000000000000000000000000000000000000600052601260045260246000fd5b600061108382610c6e565b915061108e83610c6e565b92508261109e5761109d611049565b5b828204905092915050565b600069ffffffffffffffffffff82169050919050565b6110c8816110a9565b81146110d357600080fd5b50565b6000815190506110e5816110bf565b92915050565b6000819050919050565b6110fe816110eb565b811461110957600080fd5b50565b60008151905061111b816110f5565b92915050565b60008151905061113081610c78565b92915050565b600080600080600060a0868803121561115257611151610c69565b5b6000611160888289016110d6565b95505060206111718882890161110c565b945050604061118288828901611121565b935050606061119388828901611121565b92505060806111a4888289016110d6565b9150509295509295909350565b600082825260208201905092915050565b7f4f6e6c79204f776e657200000000000000000000000000000000000000000000600082015250565b60006111f8600a836111b1565b9150611203826111c2565b602082019050919050565b60006020820190508181036000830152611227816111eb565b9050919050565b7f416c726561647920436c61696d65642052657761726400000000000000000000600082015250565b60006112646016836111b1565b915061126f8261122e565b602082019050919050565b6000602082019050818103600083015261129381611257565b9050919050565b600081519050919050565b600081905092915050565b60005b838110156112ce5780820151818401526020810190506112b3565b60008484015250505050565b60006112e58261129a565b6112ef81856112a5565b93506112ff8185602086016112b0565b80840191505092915050565b600061131782846112da565b915081905092915050565b7f5472616e73616374696f6e204661696c656420696e20636c61696d0000000000600082015250565b6000611358601b836111b1565b915061136382611322565b602082019050919050565b600060208201905081810360008301526113878161134b565b9050919050565b6000602082840312156113a4576113a3610c69565b5b60006113b284828501611121565b91505092915050565b50565b60006113cb6000836112a5565b91506113d6826113bb565b600082019050919050565b60006113ec826113be565b9150819050919050565b7f4661696c6564205472616e73616374696f6e0000000000000000000000000000600082015250565b600061142c6012836111b1565b9150611437826113f6565b602082019050919050565b6000602082019050818103600083015261145b8161141f565b9050919050565b7f4f6f707320796f757220496e737572616e636520457870697265640000000000600082015250565b6000611498601b836111b1565b91506114a382611462565b602082019050919050565b600060208201905081810360008301526114c78161148b565b9050919050565b7f5468657265206973206e6f206368616e676520696e2041737365740000000000600082015250565b6000611504601b836111b1565b915061150f826114ce565b602082019050919050565b60006020820190508181036000830152611533816114f7565b905091905056fea2646970667358221220a4a688697ea6542c49eedc8404ab7a6e54fd9317ffa02b7cffbbbf315ae8968364736f6c63430008120033",
  "linkReferences": {},
  "deployedLinkReferences": {}
}