{
  "_format": "hh-sol-artifact-1",
  "contractName": "CryptoAssetInsuranceFactory",
  "sourceName": "contracts/AssetInsurance.sol",
  "abi": [
    {
      "inputs": [
        {
          "internalType": "address",
          "name": "_ethToUsd",
          "type": "address"
        }
      ],
      "stateMutability": "payable",
      "type": "constructor"
    },
    {
      "inputs": [
        {
          "internalType": "uint256",
          "name": "_tokens",
          "type": "uint256"
        },
        {
          "internalType": "uint256",
          "name": "_plan",
          "type": "uint256"
        },
        {
          "internalType": "uint256",
          "name": "_priceAtInsurance",
          "type": "uint256"
        },
        {
          "internalType": "uint256",
          "name": "_decimals",
          "type": "uint256"
        },
        {
          "internalType": "uint256",
          "name": "_timePeriod",
          "type": "uint256"
        }
      ],
      "name": "calculateDepositMoney",
      "outputs": [
        {
          "internalType": "uint256",
          "name": "",
          "type": "uint256"
        }
      ],
      "stateMutability": "view",
      "type": "function"
    },
    {
      "inputs": [],
      "name": "claimInsurance",
      "outputs": [],
      "stateMutability": "payable",
      "type": "function"
    },
    {
      "inputs": [
        {
          "internalType": "address",
          "name": "",
          "type": "address"
        }
      ],
      "name": "contractToCustomer",
      "outputs": [
        {
          "internalType": "address",
          "name": "",
          "type": "address"
        }
      ],
      "stateMutability": "view",
      "type": "function"
    },
    {
      "inputs": [
        {
          "internalType": "address",
          "name": "",
          "type": "address"
        }
      ],
      "name": "customerToContract",
      "outputs": [
        {
          "internalType": "address",
          "name": "",
          "type": "address"
        }
      ],
      "stateMutability": "view",
      "type": "function"
    },
    {
      "inputs": [
        {
          "internalType": "address",
          "name": "customerAddress",
          "type": "address"
        }
      ],
      "name": "getCustomerToContract",
      "outputs": [
        {
          "internalType": "address",
          "name": "",
          "type": "address"
        }
      ],
      "stateMutability": "view",
      "type": "function"
    },
    {
      "inputs": [],
      "name": "getCustomers",
      "outputs": [
        {
          "internalType": "address[]",
          "name": "",
          "type": "address[]"
        }
      ],
      "stateMutability": "view",
      "type": "function"
    },
    {
      "inputs": [
        {
          "internalType": "address",
          "name": "_oracleAddress",
          "type": "address"
        }
      ],
      "name": "getFeedValueOfAsset",
      "outputs": [
        {
          "internalType": "uint256",
          "name": "",
          "type": "uint256"
        }
      ],
      "stateMutability": "view",
      "type": "function"
    },
    {
      "inputs": [
        {
          "internalType": "uint8",
          "name": "plan",
          "type": "uint8"
        },
        {
          "internalType": "address",
          "name": "assetAddress",
          "type": "address"
        },
        {
          "internalType": "uint256",
          "name": "timePeriod",
          "type": "uint256"
        },
        {
          "internalType": "address",
          "name": "oracleAddress",
          "type": "address"
        },
        {
          "internalType": "uint256",
          "name": "decimals",
          "type": "uint256"
        }
      ],
      "name": "getInsurance",
      "outputs": [],
      "stateMutability": "payable",
      "type": "function"
    },
    {
      "inputs": [],
      "name": "getOwner",
      "outputs": [
        {
          "internalType": "address",
          "name": "",
          "type": "address"
        }
      ],
      "stateMutability": "view",
      "type": "function"
    },
    {
      "inputs": [
        {
          "internalType": "address",
          "name": "tokenAddress",
          "type": "address"
        },
        {
          "internalType": "address",
          "name": "accountAddress",
          "type": "address"
        }
      ],
      "name": "getTokenBalance",
      "outputs": [
        {
          "internalType": "uint256",
          "name": "",
          "type": "uint256"
        }
      ],
      "stateMutability": "view",
      "type": "function"
    },
    {
      "inputs": [],
      "name": "getUsdToWei",
      "outputs": [
        {
          "internalType": "uint256",
          "name": "",
          "type": "uint256"
        }
      ],
      "stateMutability": "view",
      "type": "function"
    },
    {
      "inputs": [
        {
          "internalType": "uint8",
          "name": "",
          "type": "uint8"
        }
      ],
      "name": "plans",
      "outputs": [
        {
          "internalType": "uint8",
          "name": "",
          "type": "uint8"
        }
      ],
      "stateMutability": "view",
      "type": "function"
    },
    {
      "inputs": [
        {
          "internalType": "uint256",
          "name": "amount",
          "type": "uint256"
        }
      ],
      "name": "withdraw",
      "outputs": [],
      "stateMutability": "payable",
      "type": "function"
    },
    {
      "stateMutability": "payable",
      "type": "receive"
    }
  ],
  "bytecode": "0x60c060405260405162003749380380620037498339818101604052810190620000299190620001e5565b670de0b6b3a76400003410156200003f57600080fd5b600073ffffffffffffffffffffffffffffffffffffffff168173ffffffffffffffffffffffffffffffffffffffff16036200007957600080fd5b3373ffffffffffffffffffffffffffffffffffffffff1660808173ffffffffffffffffffffffffffffffffffffffff1681525050600160036000600160ff16815260200190815260200160002060006101000a81548160ff021916908360ff160217905550600560036000600260ff16815260200190815260200160002060006101000a81548160ff021916908360ff160217905550600a60036000600360ff16815260200190815260200160002060006101000a81548160ff021916908360ff1602179055508073ffffffffffffffffffffffffffffffffffffffff1660a08173ffffffffffffffffffffffffffffffffffffffff16815250505062000217565b600080fd5b600073ffffffffffffffffffffffffffffffffffffffff82169050919050565b6000620001ad8262000180565b9050919050565b620001bf81620001a0565b8114620001cb57600080fd5b50565b600081519050620001df81620001b4565b92915050565b600060208284031215620001fe57620001fd6200017b565b5b60006200020e84828501620001ce565b91505092915050565b60805160a05161350562000244600039600061061a0152600081816103a0015261053201526135056000f3fe608060405260043610620000d95760003560e01c80639db3b3a7116200008b578063c489744b1162000061578063c489744b14620002c6578063e2978f3a146200030a578063f1ba7127146200034e578063f861cb91146200037e57620000e1565b80639db3b3a71462000246578063a75ac6081462000276578063af9b82d9146200028257620000e1565b80632e1a7d4d14620000e657806331714929146200010657806360a31a88146200014a578063893d20e8146200018e57806395c1d18c14620001be5780639b7718a6146200020257620000e1565b36620000e157005b600080fd5b620001046004803603810190620000fe919062000f22565b6200039e565b005b3480156200011357600080fd5b506200013260048036038101906200012c919062000fb9565b62000484565b60405162000141919062000ffc565b60405180910390f35b3480156200015757600080fd5b5062000176600480360381019062000170919062001057565b6200050e565b6040516200018591906200109a565b60405180910390f35b3480156200019b57600080fd5b50620001a66200052e565b604051620001b59190620010c8565b60405180910390f35b348015620001cb57600080fd5b50620001ea6004803603810190620001e4919062000fb9565b62000556565b604051620001f99190620010c8565b60405180910390f35b3480156200020f57600080fd5b506200022e6004803603810190620002289190620010e5565b62000589565b6040516200023d919062000ffc565b60405180910390f35b3480156200025357600080fd5b506200025e62000615565b6040516200026d919062000ffc565b60405180910390f35b62000280620006d5565b005b3480156200028f57600080fd5b50620002ae6004803603810190620002a8919062000fb9565b620009e0565b604051620002bd9190620010c8565b60405180910390f35b348015620002d357600080fd5b50620002f26004803603810190620002ec91906200116d565b62000a13565b60405162000301919062000ffc565b60405180910390f35b3480156200031757600080fd5b5062000336600480360381019062000330919062000fb9565b62000a9c565b604051620003459190620010c8565b60405180910390f35b3480156200035b57600080fd5b506200036662000b05565b60405162000375919062001282565b60405180910390f35b6200039c6004803603810190620003969190620012a6565b62000b95565b005b7f000000000000000000000000000000000000000000000000000000000000000073ffffffffffffffffffffffffffffffffffffffff163373ffffffffffffffffffffffffffffffffffffffff1614620003f757600080fd5b804710156200040557600080fd5b60003373ffffffffffffffffffffffffffffffffffffffff16826040516200042d9062001363565b60006040518083038185875af1925050503d80600081146200046c576040519150601f19603f3d011682016040523d82523d6000602084013e62000471565b606091505b50509050806200048057600080fd5b5050565b60008082905060008173ffffffffffffffffffffffffffffffffffffffff1663feaf968c6040518163ffffffff1660e01b815260040160a060405180830381865afa158015620004d8573d6000803e3d6000fd5b505050506040513d601f19601f82011682018060405250810190620004fe919062001413565b5050509150508092505050919050565b60036020528060005260406000206000915054906101000a900460ff1681565b60007f0000000000000000000000000000000000000000000000000000000000000000905090565b60016020528060005260406000206000915054906101000a900473ffffffffffffffffffffffffffffffffffffffff1681565b6000806200059662000615565b9050600060028086620005aa9190620014ca565b620005b6919062001515565b600a620005c49190620016a4565b8285898b8a620005d59190620014ca565b620005e19190620014ca565b620005ed9190620014ca565b620005f99190620014ca565b62000605919062001724565b9050809250505095945050505050565b6000807f0000000000000000000000000000000000000000000000000000000000000000905060008173ffffffffffffffffffffffffffffffffffffffff1663feaf968c6040518163ffffffff1660e01b815260040160a060405180830381865afa15801562000689573d6000803e3d6000fd5b505050506040513d601f19601f82011682018060405250810190620006af919062001413565b505050915050806a52b7d2dcc80cd2e4000000620006ce91906200175c565b9250505090565b600073ffffffffffffffffffffffffffffffffffffffff16600260003373ffffffffffffffffffffffffffffffffffffffff1673ffffffffffffffffffffffffffffffffffffffff16815260200190815260200160002060009054906101000a900473ffffffffffffffffffffffffffffffffffffffff1673ffffffffffffffffffffffffffffffffffffffff16036200076e57600080fd5b600033905060008173ffffffffffffffffffffffffffffffffffffffff166371127ed26040518163ffffffff1660e01b8152600401602060405180830381865afa158015620007c1573d6000803e3d6000fd5b505050506040513d601f19601f82011682018060405250810190620007e79190620017d0565b905060008273ffffffffffffffffffffffffffffffffffffffff1663313ce5676040518163ffffffff1660e01b8152600401602060405180830381865afa15801562000837573d6000803e3d6000fd5b505050506040513d601f19601f820116820180604052508101906200085d9190620017d0565b905060008203620008a5576040517f08c379a00000000000000000000000000000000000000000000000000000000081526004016200089c9062001863565b60405180910390fd5b6000620008b162000615565b9050600082600a620008c49190620016a4565b8483620008d29190620014ca565b620008de919062001724565b905047811062000925576040517f08c379a00000000000000000000000000000000000000000000000000000000081526004016200091c90620018d5565b60405180910390fd5b60003373ffffffffffffffffffffffffffffffffffffffff16826040516200094d9062001363565b60006040518083038185875af1925050503d80600081146200098c576040519150601f19603f3d011682016040523d82523d6000602084013e62000991565b606091505b5050905080620009d8576040517f08c379a0000000000000000000000000000000000000000000000000000000008152600401620009cf9062001947565b60405180910390fd5b505050505050565b60026020528060005260406000206000915054906101000a900473ffffffffffffffffffffffffffffffffffffffff1681565b60008273ffffffffffffffffffffffffffffffffffffffff166370a08231836040518263ffffffff1660e01b815260040162000a509190620010c8565b602060405180830381865afa15801562000a6e573d6000803e3d6000fd5b505050506040513d601f19601f8201168201806040525081019062000a949190620017d0565b905092915050565b6000600160008373ffffffffffffffffffffffffffffffffffffffff1673ffffffffffffffffffffffffffffffffffffffff16815260200190815260200160002060009054906101000a900473ffffffffffffffffffffffffffffffffffffffff169050919050565b6060600080548060200260200160405190810160405280929190818152602001828054801562000b8b57602002820191906000526020600020905b8160009054906101000a900473ffffffffffffffffffffffffffffffffffffffff1673ffffffffffffffffffffffffffffffffffffffff168152602001906001019080831162000b40575b5050505050905090565b600073ffffffffffffffffffffffffffffffffffffffff16600160003373ffffffffffffffffffffffffffffffffffffffff1673ffffffffffffffffffffffffffffffffffffffff16815260200190815260200160002060009054906101000a900473ffffffffffffffffffffffffffffffffffffffff1673ffffffffffffffffffffffffffffffffffffffff161462000c2e57600080fd5b600062000c3c853362000a13565b90506000600360008860ff1660ff16815260200190815260200160002060009054906101000a900460ff16905060008160ff160362000cb2576040517f08c379a000000000000000000000000000000000000000000000000000000000815260040162000ca990620019b9565b60405180910390fd5b600062000cbf8562000484565b9050600062000cd5848460ff1684888b62000589565b905080341462000d1c576040517f08c379a000000000000000000000000000000000000000000000000000000000815260040162000d139062001a2b565b60405180910390fd5b6000338986868b308c898d60405162000d359062000ed4565b62000d499998979695949392919062001a90565b604051809103906000f08015801562000d66573d6000803e3d6000fd5b50905080600160003373ffffffffffffffffffffffffffffffffffffffff1673ffffffffffffffffffffffffffffffffffffffff16815260200190815260200160002060006101000a81548173ffffffffffffffffffffffffffffffffffffffff021916908373ffffffffffffffffffffffffffffffffffffffff16021790555033600260008373ffffffffffffffffffffffffffffffffffffffff1673ffffffffffffffffffffffffffffffffffffffff16815260200190815260200160002060006101000a81548173ffffffffffffffffffffffffffffffffffffffff021916908373ffffffffffffffffffffffffffffffffffffffff1602179055506000339080600181540180825580915050600190039060005260206000200160009091909190916101000a81548173ffffffffffffffffffffffffffffffffffffffff021916908373ffffffffffffffffffffffffffffffffffffffff16021790555050505050505050505050565b6119a08062001b3083390190565b600080fd5b6000819050919050565b62000efc8162000ee7565b811462000f0857600080fd5b50565b60008135905062000f1c8162000ef1565b92915050565b60006020828403121562000f3b5762000f3a62000ee2565b5b600062000f4b8482850162000f0b565b91505092915050565b600073ffffffffffffffffffffffffffffffffffffffff82169050919050565b600062000f818262000f54565b9050919050565b62000f938162000f74565b811462000f9f57600080fd5b50565b60008135905062000fb38162000f88565b92915050565b60006020828403121562000fd25762000fd162000ee2565b5b600062000fe28482850162000fa2565b91505092915050565b62000ff68162000ee7565b82525050565b600060208201905062001013600083018462000feb565b92915050565b600060ff82169050919050565b620010318162001019565b81146200103d57600080fd5b50565b600081359050620010518162001026565b92915050565b60006020828403121562001070576200106f62000ee2565b5b6000620010808482850162001040565b91505092915050565b620010948162001019565b82525050565b6000602082019050620010b1600083018462001089565b92915050565b620010c28162000f74565b82525050565b6000602082019050620010df6000830184620010b7565b92915050565b600080600080600060a0868803121562001104576200110362000ee2565b5b6000620011148882890162000f0b565b9550506020620011278882890162000f0b565b94505060406200113a8882890162000f0b565b93505060606200114d8882890162000f0b565b9250506080620011608882890162000f0b565b9150509295509295909350565b6000806040838503121562001187576200118662000ee2565b5b6000620011978582860162000fa2565b9250506020620011aa8582860162000fa2565b9150509250929050565b600081519050919050565b600082825260208201905092915050565b6000819050602082019050919050565b620011eb8162000f74565b82525050565b6000620011ff8383620011e0565b60208301905092915050565b6000602082019050919050565b60006200122582620011b4565b620012318185620011bf565b93506200123e83620011d0565b8060005b8381101562001275578151620012598882620011f1565b975062001266836200120b565b92505060018101905062001242565b5085935050505092915050565b600060208201905081810360008301526200129e818462001218565b905092915050565b600080600080600060a08688031215620012c557620012c462000ee2565b5b6000620012d58882890162001040565b9550506020620012e88882890162000fa2565b9450506040620012fb8882890162000f0b565b93505060606200130e8882890162000fa2565b9250506080620013218882890162000f0b565b9150509295509295909350565b600081905092915050565b50565b60006200134b6000836200132e565b9150620013588262001339565b600082019050919050565b600062001370826200133c565b9150819050919050565b600069ffffffffffffffffffff82169050919050565b6200139b816200137a565b8114620013a757600080fd5b50565b600081519050620013bb8162001390565b92915050565b6000819050919050565b620013d681620013c1565b8114620013e257600080fd5b50565b600081519050620013f681620013cb565b92915050565b6000815190506200140d8162000ef1565b92915050565b600080600080600060a0868803121562001432576200143162000ee2565b5b60006200144288828901620013aa565b95505060206200145588828901620013e5565b94505060406200146888828901620013fc565b93505060606200147b88828901620013fc565b92505060806200148e88828901620013aa565b9150509295509295909350565b7f4e487b7100000000000000000000000000000000000000000000000000000000600052601160045260246000fd5b6000620014d78262000ee7565b9150620014e48362000ee7565b9250828202620014f48162000ee7565b915082820484148315176200150e576200150d6200149b565b5b5092915050565b6000620015228262000ee7565b91506200152f8362000ee7565b92508282019050808211156200154a57620015496200149b565b5b92915050565b60008160011c9050919050565b6000808291508390505b6001851115620015af578086048111156200158757620015866200149b565b5b6001851615620015975780820291505b8081029050620015a78562001550565b945062001567565b94509492505050565b600082620015ca57600190506200169d565b81620015da57600090506200169d565b8160018114620015f35760028114620015fe5762001634565b60019150506200169d565b60ff8411156200161357620016126200149b565b5b8360020a9150848211156200162d576200162c6200149b565b5b506200169d565b5060208310610133831016604e8410600b84101617156200166e5782820a9050838111156200166857620016676200149b565b5b6200169d565b6200167d84848460016200155d565b925090508184048111156200169757620016966200149b565b5b81810290505b9392505050565b6000620016b18262000ee7565b9150620016be8362000ee7565b9250620016ed7fffffffffffffffffffffffffffffffffffffffffffffffffffffffffffffffff8484620015b8565b905092915050565b7f4e487b7100000000000000000000000000000000000000000000000000000000600052601260045260246000fd5b6000620017318262000ee7565b91506200173e8362000ee7565b925082620017515762001750620016f5565b5b828204905092915050565b60006200176982620013c1565b91506200177683620013c1565b925082620017895762001788620016f5565b5b600160000383147f800000000000000000000000000000000000000000000000000000000000000083141615620017c557620017c46200149b565b5b828205905092915050565b600060208284031215620017e957620017e862000ee2565b5b6000620017f984828501620013fc565b91505092915050565b600082825260208201905092915050565b7f436c61696d20416d6f756e742053686f756c64206e6f74206265203000000000600082015250565b60006200184b601c8362001802565b9150620018588262001813565b602082019050919050565b600060208201905081810360008301526200187e816200183c565b9050919050565b7f4e6f7420656e6f7567682046756e647320696e20436f6e747261637400000000600082015250565b6000620018bd601c8362001802565b9150620018ca8262001885565b602082019050919050565b60006020820190508181036000830152620018f081620018ae565b9050919050565b7f5472616e73616374696f6e20776173206e6f7420737563636573737366756c00600082015250565b60006200192f601f8362001802565b91506200193c82620018f7565b602082019050919050565b60006020820190508181036000830152620019628162001920565b9050919050565b7f496e76616c696420506c616e0000000000000000000000000000000000000000600082015250565b6000620019a1600c8362001802565b9150620019ae8262001969565b602082019050919050565b60006020820190508181036000830152620019d48162001992565b9050919050565b7f4e6f742073656e6420496e737572616e636520416d6f756e7400000000000000600082015250565b600062001a1360198362001802565b915062001a2082620019db565b602082019050919050565b6000602082019050818103600083015262001a468162001a04565b9050919050565b6000819050919050565b600062001a7862001a7262001a6c8462001019565b62001a4d565b62000ee7565b9050919050565b62001a8a8162001a57565b82525050565b60006101208201905062001aa8600083018c620010b7565b62001ab7602083018b620010b7565b62001ac6604083018a62000feb565b62001ad5606083018962001a7f565b62001ae4608083018862000feb565b62001af360a0830187620010b7565b62001b0260c0830186620010b7565b62001b1160e083018562000feb565b62001b2161010083018462000feb565b9a995050505050505050505056fe6101606040523480156200001257600080fd5b50604051620019a0380380620019a0833981810160405281019062000038919062000202565b8873ffffffffffffffffffffffffffffffffffffffff1660808173ffffffffffffffffffffffffffffffffffffffff16815250508773ffffffffffffffffffffffffffffffffffffffff1660a08173ffffffffffffffffffffffffffffffffffffffff16815250508660c081815250508560e081815250506228206f85620000c1919062000310565b42620000ce91906200035b565b61010081815250508373ffffffffffffffffffffffffffffffffffffffff166101208173ffffffffffffffffffffffffffffffffffffffff16815250508273ffffffffffffffffffffffffffffffffffffffff166101408173ffffffffffffffffffffffffffffffffffffffff1681525050816001819055508060028190555050505050505050505062000396565b600080fd5b600073ffffffffffffffffffffffffffffffffffffffff82169050919050565b60006200018f8262000162565b9050919050565b620001a18162000182565b8114620001ad57600080fd5b50565b600081519050620001c18162000196565b92915050565b6000819050919050565b620001dc81620001c7565b8114620001e857600080fd5b50565b600081519050620001fc81620001d1565b92915050565b60008060008060008060008060006101208a8c0312156200022857620002276200015d565b5b6000620002388c828d01620001b0565b99505060206200024b8c828d01620001b0565b98505060406200025e8c828d01620001eb565b9750506060620002718c828d01620001eb565b9650506080620002848c828d01620001eb565b95505060a0620002978c828d01620001b0565b94505060c0620002aa8c828d01620001b0565b93505060e0620002bd8c828d01620001eb565b925050610100620002d18c828d01620001eb565b9150509295985092959850929598565b7f4e487b7100000000000000000000000000000000000000000000000000000000600052601160045260246000fd5b60006200031d82620001c7565b91506200032a83620001c7565b92508282026200033a81620001c7565b91508282048414831517620003545762000353620002e1565b5b5092915050565b60006200036882620001c7565b91506200037583620001c7565b925082820190508082111562000390576200038f620002e1565b5b92915050565b60805160a05160c05160e05161010051610120516101405161157062000430600039600081816108190152610b8801526000818161065b01526108c10152600081816105340152610b080152600081816107ab0152610c120152600081816104330152610a550152600061047d015260008181610558015281816107f5015281816108e5015281816109750152610a7901526115706000f3fe60806040526004361061010d5760003560e01c806371127ed211610095578063c489744b11610064578063c489744b14610358578063de11c94a14610395578063e777468b146103c0578063e834a834146103ca578063f2adc4e6146103f557610114565b806371127ed2146102ac578063830953ab146102d75780638da5cb5b14610302578063a89ae4ba1461032d57610114565b806331714929116100dc57806331714929146101d75780633e79d1e1146102145780634e71d92d1461023f57806353e065711461025657806357c9ca141461028157610114565b806316c8d7e9146101195780631ba46cfd146101565780631e7755cd14610181578063313ce567146101ac57610114565b3661011457005b600080fd5b34801561012557600080fd5b50610140600480360381019061013b9190610ca4565b610420565b60405161014d9190610ce0565b60405180910390f35b34801561016257600080fd5b5061016b61047b565b6040516101789190610d3c565b60405180910390f35b34801561018d57600080fd5b5061019661049f565b6040516101a39190610ce0565b60405180910390f35b3480156101b857600080fd5b506101c16104a5565b6040516101ce9190610ce0565b60405180910390f35b3480156101e357600080fd5b506101fe60048036038101906101f99190610d83565b6104ab565b60405161020b9190610ce0565b60405180910390f35b34801561022057600080fd5b50610229610532565b6040516102369190610ce0565b60405180910390f35b34801561024b57600080fd5b50610254610556565b005b34801561026257600080fd5b5061026b6107a9565b6040516102789190610ce0565b60405180910390f35b34801561028d57600080fd5b506102966107cd565b6040516102a39190610dcb565b60405180910390f35b3480156102b857600080fd5b506102c16107e4565b6040516102ce9190610ce0565b60405180910390f35b3480156102e357600080fd5b506102ec6107ed565b6040516102f99190610ce0565b60405180910390f35b34801561030e57600080fd5b506103176107f3565b6040516103249190610d3c565b60405180910390f35b34801561033957600080fd5b50610342610817565b60405161034f9190610d3c565b60405180910390f35b34801561036457600080fd5b5061037f600480360381019061037a9190610de6565b61083b565b60405161038c9190610ce0565b60405180910390f35b3480156103a157600080fd5b506103aa6108bf565b6040516103b79190610d3c565b60405180910390f35b6103c86108e3565b005b3480156103d657600080fd5b506103df610a40565b6040516103ec9190610dcb565b60405180910390f35b34801561040157600080fd5b5061040a610a53565b6040516104179190610ce0565b60405180910390f35b6000600254600a6104319190610f88565b7f0000000000000000000000000000000000000000000000000000000000000000836001546104609190610fd3565b61046a9190611007565b6104749190611078565b9050919050565b7f000000000000000000000000000000000000000000000000000000000000000081565b60015481565b60025481565b60008082905060008173ffffffffffffffffffffffffffffffffffffffff1663feaf968c6040518163ffffffff1660e01b815260040160a060405180830381865afa1580156104fe573d6000803e3d6000fd5b505050506040513d601f19601f820116820180604052508101906105229190611136565b5050509150508092505050919050565b7f000000000000000000000000000000000000000000000000000000000000000081565b7f000000000000000000000000000000000000000000000000000000000000000073ffffffffffffffffffffffffffffffffffffffff163373ffffffffffffffffffffffffffffffffffffffff16146105e4576040517f08c379a00000000000000000000000000000000000000000000000000000000081526004016105db9061120e565b60405180910390fd5b600360009054906101000a900460ff1615610634576040517f08c379a000000000000000000000000000000000000000000000000000000000815260040161062b9061127a565b60405180910390fd5b61063c610a77565b6001600360006101000a81548160ff02191690831515021790555060007f000000000000000000000000000000000000000000000000000000000000000073ffffffffffffffffffffffffffffffffffffffff166040516024016040516020818303038152906040527fa75ac608000000000000000000000000000000000000000000000000000000007bffffffffffffffffffffffffffffffffffffffffffffffffffffffff19166020820180517bffffffffffffffffffffffffffffffffffffffffffffffffffffffff8381831617835250505050604051610720919061130b565b6000604051808303816000865af19150503d806000811461075d576040519150601f19603f3d011682016040523d82523d6000602084013e610762565b606091505b50509050806107a6576040517f08c379a000000000000000000000000000000000000000000000000000000000815260040161079d9061136e565b60405180910390fd5b50565b7f000000000000000000000000000000000000000000000000000000000000000081565b6000600360009054906101000a900460ff16905090565b60008054905090565b60005481565b7f000000000000000000000000000000000000000000000000000000000000000081565b7f000000000000000000000000000000000000000000000000000000000000000081565b60008273ffffffffffffffffffffffffffffffffffffffff166370a08231836040518263ffffffff1660e01b81526004016108769190610d3c565b602060405180830381865afa158015610893573d6000803e3d6000fd5b505050506040513d601f19601f820116820180604052508101906108b7919061138e565b905092915050565b7f000000000000000000000000000000000000000000000000000000000000000081565b7f000000000000000000000000000000000000000000000000000000000000000073ffffffffffffffffffffffffffffffffffffffff163373ffffffffffffffffffffffffffffffffffffffff1614610971576040517f08c379a00000000000000000000000000000000000000000000000000000000081526004016109689061120e565b60405180910390fd5b60007f000000000000000000000000000000000000000000000000000000000000000073ffffffffffffffffffffffffffffffffffffffff16476040516109b7906113e1565b60006040518083038185875af1925050503d80600081146109f4576040519150601f19603f3d011682016040523d82523d6000602084013e6109f9565b606091505b5050905080610a3d576040517f08c379a0000000000000000000000000000000000000000000000000000000008152600401610a3490611442565b60405180910390fd5b50565b600360009054906101000a900460ff1681565b7f000000000000000000000000000000000000000000000000000000000000000081565b7f000000000000000000000000000000000000000000000000000000000000000073ffffffffffffffffffffffffffffffffffffffff163373ffffffffffffffffffffffffffffffffffffffff1614610b05576040517f08c379a0000000000000000000000000000000000000000000000000000000008152600401610afc9061120e565b60405180910390fd5b427f000000000000000000000000000000000000000000000000000000000000000011610b67576040517f08c379a0000000000000000000000000000000000000000000000000000000008152600401610b5e906114ae565b60405180910390fd5b600360009054906101000a900460ff1615610b8157600080fd5b6000610bac7f00000000000000000000000000000000000000000000000000000000000000006104ab565b90506001548110610bf2576040517f08c379a0000000000000000000000000000000000000000000000000000000008152600401610be99061151a565b60405180910390fd5b6000610bfd82610420565b905060008111610c0c57600080fd5b6000600a7f000000000000000000000000000000000000000000000000000000000000000083610c3c9190611007565b610c469190611078565b905080821015610c5c5781600081905550610c64565b806000819055505b505050565b600080fd5b6000819050919050565b610c8181610c6e565b8114610c8c57600080fd5b50565b600081359050610c9e81610c78565b92915050565b600060208284031215610cba57610cb9610c69565b5b6000610cc884828501610c8f565b91505092915050565b610cda81610c6e565b82525050565b6000602082019050610cf56000830184610cd1565b92915050565b600073ffffffffffffffffffffffffffffffffffffffff82169050919050565b6000610d2682610cfb565b9050919050565b610d3681610d1b565b82525050565b6000602082019050610d516000830184610d2d565b92915050565b610d6081610d1b565b8114610d6b57600080fd5b50565b600081359050610d7d81610d57565b92915050565b600060208284031215610d9957610d98610c69565b5b6000610da784828501610d6e565b91505092915050565b60008115159050919050565b610dc581610db0565b82525050565b6000602082019050610de06000830184610dbc565b92915050565b60008060408385031215610dfd57610dfc610c69565b5b6000610e0b85828601610d6e565b9250506020610e1c85828601610d6e565b9150509250929050565b7f4e487b7100000000000000000000000000000000000000000000000000000000600052601160045260246000fd5b60008160011c9050919050565b6000808291508390505b6001851115610eac57808604811115610e8857610e87610e26565b5b6001851615610e975780820291505b8081029050610ea585610e55565b9450610e6c565b94509492505050565b600082610ec55760019050610f81565b81610ed35760009050610f81565b8160018114610ee95760028114610ef357610f22565b6001915050610f81565b60ff841115610f0557610f04610e26565b5b8360020a915084821115610f1c57610f1b610e26565b5b50610f81565b5060208310610133831016604e8410600b8410161715610f575782820a905083811115610f5257610f51610e26565b5b610f81565b610f648484846001610e62565b92509050818404811115610f7b57610f7a610e26565b5b81810290505b9392505050565b6000610f9382610c6e565b9150610f9e83610c6e565b9250610fcb7fffffffffffffffffffffffffffffffffffffffffffffffffffffffffffffffff8484610eb5565b905092915050565b6000610fde82610c6e565b9150610fe983610c6e565b925082820390508181111561100157611000610e26565b5b92915050565b600061101282610c6e565b915061101d83610c6e565b925082820261102b81610c6e565b9150828204841483151761104257611041610e26565b5b5092915050565b7f4e487b7100000000000000000000000000000000000000000000000000000000600052601260045260246000fd5b600061108382610c6e565b915061108e83610c6e565b92508261109e5761109d611049565b5b828204905092915050565b600069ffffffffffffffffffff82169050919050565b6110c8816110a9565b81146110d357600080fd5b50565b6000815190506110e5816110bf565b92915050565b6000819050919050565b6110fe816110eb565b811461110957600080fd5b50565b60008151905061111b816110f5565b92915050565b60008151905061113081610c78565b92915050565b600080600080600060a0868803121561115257611151610c69565b5b6000611160888289016110d6565b95505060206111718882890161110c565b945050604061118288828901611121565b935050606061119388828901611121565b92505060806111a4888289016110d6565b9150509295509295909350565b600082825260208201905092915050565b7f4f6e6c79204f776e657200000000000000000000000000000000000000000000600082015250565b60006111f8600a836111b1565b9150611203826111c2565b602082019050919050565b60006020820190508181036000830152611227816111eb565b9050919050565b7f416c726561647920436c61696d65642052657761726400000000000000000000600082015250565b60006112646016836111b1565b915061126f8261122e565b602082019050919050565b6000602082019050818103600083015261129381611257565b9050919050565b600081519050919050565b600081905092915050565b60005b838110156112ce5780820151818401526020810190506112b3565b60008484015250505050565b60006112e58261129a565b6112ef81856112a5565b93506112ff8185602086016112b0565b80840191505092915050565b600061131782846112da565b915081905092915050565b7f5472616e73616374696f6e204661696c656420696e20636c61696d0000000000600082015250565b6000611358601b836111b1565b915061136382611322565b602082019050919050565b600060208201905081810360008301526113878161134b565b9050919050565b6000602082840312156113a4576113a3610c69565b5b60006113b284828501611121565b91505092915050565b50565b60006113cb6000836112a5565b91506113d6826113bb565b600082019050919050565b60006113ec826113be565b9150819050919050565b7f4661696c6564205472616e73616374696f6e0000000000000000000000000000600082015250565b600061142c6012836111b1565b9150611437826113f6565b602082019050919050565b6000602082019050818103600083015261145b8161141f565b9050919050565b7f4f6f707320796f757220496e737572616e636520457870697265640000000000600082015250565b6000611498601b836111b1565b91506114a382611462565b602082019050919050565b600060208201905081810360008301526114c78161148b565b9050919050565b7f5468657265206973206e6f206368616e676520696e2041737365740000000000600082015250565b6000611504601b836111b1565b915061150f826114ce565b602082019050919050565b60006020820190508181036000830152611533816114f7565b905091905056fea2646970667358221220a4a688697ea6542c49eedc8404ab7a6e54fd9317ffa02b7cffbbbf315ae8968364736f6c63430008120033a2646970667358221220a76ab16b4f87850b74d8f571776449d5dd5b2a42c8608013c2c2b4e381f6875164736f6c63430008120033",
  "linkReferences": {},
  "deployedLinkReferences": {}
}